{
	"contracts/GameToken.sol": {
		"GameToken": {
			"abi": [
				{
					"inputs": [],
					"stateMutability": "nonpayable",
					"type": "constructor"
				},
				{
					"inputs": [
						{
							"internalType": "address",
							"name": "spender",
							"type": "address"
						},
						{
							"internalType": "uint256",
							"name": "allowance",
							"type": "uint256"
						},
						{
							"internalType": "uint256",
							"name": "needed",
							"type": "uint256"
						}
					],
					"name": "ERC20InsufficientAllowance",
					"type": "error"
				},
				{
					"inputs": [
						{
							"internalType": "address",
							"name": "sender",
							"type": "address"
						},
						{
							"internalType": "uint256",
							"name": "balance",
							"type": "uint256"
						},
						{
							"internalType": "uint256",
							"name": "needed",
							"type": "uint256"
						}
					],
					"name": "ERC20InsufficientBalance",
					"type": "error"
				},
				{
					"inputs": [
						{
							"internalType": "address",
							"name": "approver",
							"type": "address"
						}
					],
					"name": "ERC20InvalidApprover",
					"type": "error"
				},
				{
					"inputs": [
						{
							"internalType": "address",
							"name": "receiver",
							"type": "address"
						}
					],
					"name": "ERC20InvalidReceiver",
					"type": "error"
				},
				{
					"inputs": [
						{
							"internalType": "address",
							"name": "sender",
							"type": "address"
						}
					],
					"name": "ERC20InvalidSender",
					"type": "error"
				},
				{
					"inputs": [
						{
							"internalType": "address",
							"name": "spender",
							"type": "address"
						}
					],
					"name": "ERC20InvalidSpender",
					"type": "error"
				},
				{
					"anonymous": false,
					"inputs": [
						{
							"indexed": true,
							"internalType": "address",
							"name": "owner",
							"type": "address"
						},
						{
							"indexed": true,
							"internalType": "address",
							"name": "spender",
							"type": "address"
						},
						{
							"indexed": false,
							"internalType": "uint256",
							"name": "value",
							"type": "uint256"
						}
					],
					"name": "Approval",
					"type": "event"
				},
				{
					"anonymous": false,
					"inputs": [
						{
							"indexed": true,
							"internalType": "address",
							"name": "from",
							"type": "address"
						},
						{
							"indexed": true,
							"internalType": "address",
							"name": "to",
							"type": "address"
						},
						{
							"indexed": false,
							"internalType": "uint256",
							"name": "value",
							"type": "uint256"
						}
					],
					"name": "Transfer",
					"type": "event"
				},
				{
					"inputs": [],
					"name": "admin",
					"outputs": [
						{
							"internalType": "address",
							"name": "",
							"type": "address"
						}
					],
					"stateMutability": "view",
					"type": "function"
				},
				{
					"inputs": [
						{
							"internalType": "address",
							"name": "owner",
							"type": "address"
						},
						{
							"internalType": "address",
							"name": "spender",
							"type": "address"
						}
					],
					"name": "allowance",
					"outputs": [
						{
							"internalType": "uint256",
							"name": "",
							"type": "uint256"
						}
					],
					"stateMutability": "view",
					"type": "function"
				},
				{
					"inputs": [
						{
							"internalType": "address",
							"name": "spender",
							"type": "address"
						},
						{
							"internalType": "uint256",
							"name": "value",
							"type": "uint256"
						}
					],
					"name": "approve",
					"outputs": [
						{
							"internalType": "bool",
							"name": "",
							"type": "bool"
						}
					],
					"stateMutability": "nonpayable",
					"type": "function"
				},
				{
					"inputs": [
						{
							"internalType": "address",
							"name": "account",
							"type": "address"
						}
					],
					"name": "balanceOf",
					"outputs": [
						{
							"internalType": "uint256",
							"name": "",
							"type": "uint256"
						}
					],
					"stateMutability": "view",
					"type": "function"
				},
				{
					"inputs": [
						{
							"internalType": "uint256",
							"name": "value",
							"type": "uint256"
						}
					],
					"name": "burnTokens",
					"outputs": [],
					"stateMutability": "nonpayable",
					"type": "function"
				},
				{
					"inputs": [],
					"name": "decimals",
					"outputs": [
						{
							"internalType": "uint8",
							"name": "",
							"type": "uint8"
						}
					],
					"stateMutability": "view",
					"type": "function"
				},
				{
					"inputs": [
						{
							"internalType": "address",
							"name": "to",
							"type": "address"
						},
						{
							"internalType": "uint256",
							"name": "value",
							"type": "uint256"
						}
					],
					"name": "mintTokens",
					"outputs": [],
					"stateMutability": "nonpayable",
					"type": "function"
				},
				{
					"inputs": [],
					"name": "name",
					"outputs": [
						{
							"internalType": "string",
							"name": "",
							"type": "string"
						}
					],
					"stateMutability": "view",
					"type": "function"
				},
				{
					"inputs": [],
					"name": "symbol",
					"outputs": [
						{
							"internalType": "string",
							"name": "",
							"type": "string"
						}
					],
					"stateMutability": "view",
					"type": "function"
				},
				{
					"inputs": [],
					"name": "totalSupply",
					"outputs": [
						{
							"internalType": "uint256",
							"name": "",
							"type": "uint256"
						}
					],
					"stateMutability": "view",
					"type": "function"
				},
				{
					"inputs": [
						{
							"internalType": "address",
							"name": "to",
							"type": "address"
						},
						{
							"internalType": "uint256",
							"name": "value",
							"type": "uint256"
						}
					],
					"name": "transfer",
					"outputs": [
						{
							"internalType": "bool",
							"name": "",
							"type": "bool"
						}
					],
					"stateMutability": "nonpayable",
					"type": "function"
				},
				{
					"inputs": [
						{
							"internalType": "address",
							"name": "from",
							"type": "address"
						},
						{
							"internalType": "address",
							"name": "to",
							"type": "address"
						},
						{
							"internalType": "uint256",
							"name": "value",
							"type": "uint256"
						}
					],
					"name": "transferFrom",
					"outputs": [
						{
							"internalType": "bool",
							"name": "",
							"type": "bool"
						}
					],
					"stateMutability": "nonpayable",
					"type": "function"
				}
			],
			"devdoc": {
				"errors": {
					"ERC20InsufficientAllowance(address,uint256,uint256)": [
						{
							"details": "Indicates a failure with the `spender`’s `allowance`. Used in transfers.",
							"params": {
								"allowance": "Amount of tokens a `spender` is allowed to operate with.",
								"needed": "Minimum amount required to perform a transfer.",
								"spender": "Address that may be allowed to operate on tokens without being their owner."
							}
						}
					],
					"ERC20InsufficientBalance(address,uint256,uint256)": [
						{
							"details": "Indicates an error related to the current `balance` of a `sender`. Used in transfers.",
							"params": {
								"balance": "Current balance for the interacting account.",
								"needed": "Minimum amount required to perform a transfer.",
								"sender": "Address whose tokens are being transferred."
							}
						}
					],
					"ERC20InvalidApprover(address)": [
						{
							"details": "Indicates a failure with the `approver` of a token to be approved. Used in approvals.",
							"params": {
								"approver": "Address initiating an approval operation."
							}
						}
					],
					"ERC20InvalidReceiver(address)": [
						{
							"details": "Indicates a failure with the token `receiver`. Used in transfers.",
							"params": {
								"receiver": "Address to which tokens are being transferred."
							}
						}
					],
					"ERC20InvalidSender(address)": [
						{
							"details": "Indicates a failure with the token `sender`. Used in transfers.",
							"params": {
								"sender": "Address whose tokens are being transferred."
							}
						}
					],
					"ERC20InvalidSpender(address)": [
						{
							"details": "Indicates a failure with the `spender` to be approved. Used in approvals.",
							"params": {
								"spender": "Address that may be allowed to operate on tokens without being their owner."
							}
						}
					]
				},
				"events": {
					"Approval(address,address,uint256)": {
						"details": "Emitted when the allowance of a `spender` for an `owner` is set by a call to {approve}. `value` is the new allowance."
					},
					"Transfer(address,address,uint256)": {
						"details": "Emitted when `value` tokens are moved from one account (`from`) to another (`to`). Note that `value` may be zero."
					}
				},
				"kind": "dev",
				"methods": {
					"allowance(address,address)": {
						"details": "See {IERC20-allowance}."
					},
					"approve(address,uint256)": {
						"details": "See {IERC20-approve}. NOTE: If `value` is the maximum `uint256`, the allowance is not updated on `transferFrom`. This is semantically equivalent to an infinite approval. Requirements: - `spender` cannot be the zero address."
					},
					"balanceOf(address)": {
						"details": "See {IERC20-balanceOf}."
					},
					"decimals()": {
						"details": "Returns the number of decimals used to get its user representation. For example, if `decimals` equals `2`, a balance of `505` tokens should be displayed to a user as `5.05` (`505 / 10 ** 2`). Tokens usually opt for a value of 18, imitating the relationship between Ether and Wei. This is the default value returned by this function, unless it's overridden. NOTE: This information is only used for _display_ purposes: it in no way affects any of the arithmetic of the contract, including {IERC20-balanceOf} and {IERC20-transfer}."
					},
					"name()": {
						"details": "Returns the name of the token."
					},
					"symbol()": {
						"details": "Returns the symbol of the token, usually a shorter version of the name."
					},
					"totalSupply()": {
						"details": "See {IERC20-totalSupply}."
					},
					"transfer(address,uint256)": {
						"details": "See {IERC20-transfer}. Requirements: - `to` cannot be the zero address. - the caller must have a balance of at least `value`."
					},
					"transferFrom(address,address,uint256)": {
						"details": "See {IERC20-transferFrom}. Skips emitting an {Approval} event indicating an allowance update. This is not required by the ERC. See {xref-ERC20-_approve-address-address-uint256-bool-}[_approve]. NOTE: Does not update the allowance if the current allowance is the maximum `uint256`. Requirements: - `from` and `to` cannot be the zero address. - `from` must have a balance of at least `value`. - the caller must have allowance for ``from``'s tokens of at least `value`."
					}
				},
				"version": 1
			},
			"evm": {
				"assembly": "    /* \"contracts/GameToken.sol\":77:553  contract GameToken is ERC20 {... */\n  mstore(0x40, 0x80)\n    /* \"contracts/GameToken.sol\":138:268  constructor() ERC20(\"Game Token\", \"GT\") {... */\n  callvalue\n  dup1\n  iszero\n  tag_1\n  jumpi\n  0x00\n  dup1\n  revert\ntag_1:\n  pop\n    /* \"ERC20.sol\":1556:1669  constructor(string memory name_, string memory symbol_) {... */\n  mload(0x40)\n  dup1\n  0x40\n  add\n  0x40\n  mstore\n  dup1\n  0x0a\n  dup2\n  mstore\n  0x20\n  add\n  shl(0xb1, 0x23b0b6b2902a37b5b2b7)\n  dup2\n  mstore\n  pop\n  mload(0x40)\n  dup1\n  0x40\n  add\n  0x40\n  mstore\n  dup1\n  0x02\n  dup2\n  mstore\n  0x20\n  add\n  shl(0xf2, 0x11d5)\n  dup2\n  mstore\n  pop\n    /* \"ERC20.sol\":1630:1635  name_ */\n  dup2\n    /* \"ERC20.sol\":1622:1627  _name */\n  0x03\n    /* \"ERC20.sol\":1622:1635  _name = name_ */\n  swap1\n  dup2\n  tag_5\n  swap2\n  swap1\n  tag_6\n  jump\t// in\ntag_5:\n  pop\n    /* \"ERC20.sol\":1645:1652  _symbol */\n  0x04\n    /* \"ERC20.sol\":1645:1662  _symbol = symbol_ */\n  tag_7\n    /* \"ERC20.sol\":1655:1662  symbol_ */\n  dup3\n    /* \"ERC20.sol\":1645:1652  _symbol */\n  dup3\n    /* \"ERC20.sol\":1645:1662  _symbol = symbol_ */\n  tag_6\n  jump\t// in\ntag_7:\n  pop\n    /* \"ERC20.sol\":1556:1669  constructor(string memory name_, string memory symbol_) {... */\n  pop\n  pop\n    /* \"contracts/GameToken.sol\":188:232  _mint(msg.sender, 1000000000000000000000000) */\n  tag_9\n    /* \"contracts/GameToken.sol\":194:204  msg.sender */\n  caller\n    /* \"contracts/GameToken.sol\":206:231  1000000000000000000000000 */\n  0xd3c21bcecceda1000000\n    /* \"contracts/GameToken.sol\":188:193  _mint */\n  shl(0x20, tag_10)\n    /* \"contracts/GameToken.sol\":188:232  _mint(msg.sender, 1000000000000000000000000) */\n  0x20\n  shr\n  jump\t// in\ntag_9:\n    /* \"contracts/GameToken.sol\":243:248  admin */\n  0x05\n    /* \"contracts/GameToken.sol\":243:261  admin = msg.sender */\n  dup1\n  sload\n  not(sub(shl(0xa0, 0x01), 0x01))\n  and\n    /* \"contracts/GameToken.sol\":251:261  msg.sender */\n  caller\n    /* \"contracts/GameToken.sol\":243:261  admin = msg.sender */\n  or\n  swap1\n  sstore\n    /* \"contracts/GameToken.sol\":77:553  contract GameToken is ERC20 {... */\n  jump(tag_35)\n    /* \"ERC20.sol\":7413:7621  function _mint(address account, uint256 value) internal {... */\ntag_10:\n  sub(shl(0xa0, 0x01), 0x01)\n    /* \"ERC20.sol\":7483:7504  account == address(0) */\n  dup3\n  and\n    /* \"ERC20.sol\":7479:7570  if (account == address(0)) {... */\n  tag_13\n  jumpi\n    /* \"ERC20.sol\":7527:7559  ERC20InvalidReceiver(address(0)) */\n  mload(0x40)\n  shl(0xe0, 0xec442f05)\n  dup2\n  mstore\n    /* \"ERC20.sol\":7556:7557  0 */\n  0x00\n    /* \"ERC20.sol\":7527:7559  ERC20InvalidReceiver(address(0)) */\n  0x04\n  dup3\n  add\n    /* \"#utility.yul\":2801:2852   */\n  mstore\n    /* \"#utility.yul\":2774:2792   */\n  0x24\n  add\n    /* \"ERC20.sol\":7527:7559  ERC20InvalidReceiver(address(0)) */\ntag_14:\n  mload(0x40)\n  dup1\n  swap2\n  sub\n  swap1\n  revert\n    /* \"ERC20.sol\":7479:7570  if (account == address(0)) {... */\ntag_13:\n    /* \"ERC20.sol\":7579:7614  _update(address(0), account, value) */\n  tag_16\n    /* \"ERC20.sol\":7595:7596  0 */\n  0x00\n    /* \"ERC20.sol\":7599:7606  account */\n  dup4\n    /* \"ERC20.sol\":7608:7613  value */\n  dup4\n    /* \"ERC20.sol\":7579:7586  _update */\n  tag_17\n    /* \"ERC20.sol\":7579:7614  _update(address(0), account, value) */\n  jump\t// in\ntag_16:\n    /* \"ERC20.sol\":7413:7621  function _mint(address account, uint256 value) internal {... */\n  pop\n  pop\n  jump\t// out\n    /* \"ERC20.sol\":5963:7070  function _update(address from, address to, uint256 value) internal virtual {... */\ntag_17:\n  sub(shl(0xa0, 0x01), 0x01)\n    /* \"ERC20.sol\":6052:6070  from == address(0) */\n  dup4\n  and\n    /* \"ERC20.sol\":6048:6588  if (from == address(0)) {... */\n  tag_19\n  jumpi\n    /* \"ERC20.sol\":6204:6209  value */\n  dup1\n    /* \"ERC20.sol\":6188:6200  _totalSupply */\n  0x02\n  0x00\n    /* \"ERC20.sol\":6188:6209  _totalSupply += value */\n  dup3\n  dup3\n  sload\n  tag_20\n  swap2\n  swap1\n  tag_21\n  jump\t// in\ntag_20:\n  swap1\n  swap2\n  sstore\n  pop\n    /* \"ERC20.sol\":6048:6588  if (from == address(0)) {... */\n  tag_22\n  swap1\n  pop\n  jump\ntag_19:\n  sub(shl(0xa0, 0x01), 0x01)\n    /* \"ERC20.sol\":6262:6277  _balances[from] */\n  dup4\n  and\n    /* \"ERC20.sol\":6240:6259  uint256 fromBalance */\n  0x00\n    /* \"ERC20.sol\":6262:6277  _balances[from] */\n  swap1\n  dup2\n  mstore\n  0x20\n  dup2\n  swap1\n  mstore\n  0x40\n  swap1\n  keccak256\n  sload\n    /* \"ERC20.sol\":6295:6314  fromBalance < value */\n  dup2\n  dup2\n  lt\n    /* \"ERC20.sol\":6291:6406  if (fromBalance < value) {... */\n  iszero\n  tag_23\n  jumpi\n    /* \"ERC20.sol\":6341:6391  ERC20InsufficientBalance(from, fromBalance, value) */\n  mload(0x40)\n  shl(0xe2, 0x391434e3)\n  dup2\n  mstore\n  sub(shl(0xa0, 0x01), 0x01)\n    /* \"#utility.yul\":3310:3342   */\n  dup6\n  and\n    /* \"ERC20.sol\":6341:6391  ERC20InsufficientBalance(from, fromBalance, value) */\n  0x04\n  dup3\n  add\n    /* \"#utility.yul\":3292:3343   */\n  mstore\n    /* \"#utility.yul\":3359:3377   */\n  0x24\n  dup2\n  add\n    /* \"#utility.yul\":3352:3386   */\n  dup3\n  swap1\n  mstore\n    /* \"#utility.yul\":3402:3420   */\n  0x44\n  dup2\n  add\n    /* \"#utility.yul\":3395:3429   */\n  dup4\n  swap1\n  mstore\n    /* \"#utility.yul\":3265:3283   */\n  0x64\n  add\n    /* \"ERC20.sol\":6341:6391  ERC20InsufficientBalance(from, fromBalance, value) */\n  tag_14\n    /* \"#utility.yul\":3090:3435   */\n  jump\n    /* \"ERC20.sol\":6291:6406  if (fromBalance < value) {... */\ntag_23:\n  sub(shl(0xa0, 0x01), 0x01)\n    /* \"ERC20.sol\":6526:6541  _balances[from] */\n  dup5\n  and\n    /* \"ERC20.sol\":6526:6535  _balances */\n  0x00\n    /* \"ERC20.sol\":6526:6541  _balances[from] */\n  swap1\n  dup2\n  mstore\n  0x20\n  dup2\n  swap1\n  mstore\n  0x40\n  swap1\n  keccak256\n    /* \"ERC20.sol\":6544:6563  fromBalance - value */\n  swap1\n  dup3\n  swap1\n  sub\n    /* \"ERC20.sol\":6526:6563  _balances[from] = fromBalance - value */\n  swap1\n  sstore\n    /* \"ERC20.sol\":6048:6588  if (from == address(0)) {... */\ntag_22:\n  sub(shl(0xa0, 0x01), 0x01)\n    /* \"ERC20.sol\":6602:6618  to == address(0) */\n  dup3\n  and\n    /* \"ERC20.sol\":6598:7023  if (to == address(0)) {... */\n  tag_26\n  jumpi\n    /* \"ERC20.sol\":6765:6777  _totalSupply */\n  0x02\n    /* \"ERC20.sol\":6765:6786  _totalSupply -= value */\n  dup1\n  sload\n  dup3\n  swap1\n  sub\n  swap1\n  sstore\n    /* \"ERC20.sol\":6598:7023  if (to == address(0)) {... */\n  jump(tag_27)\ntag_26:\n  sub(shl(0xa0, 0x01), 0x01)\n    /* \"ERC20.sol\":6976:6989  _balances[to] */\n  dup3\n  and\n    /* \"ERC20.sol\":6976:6985  _balances */\n  0x00\n    /* \"ERC20.sol\":6976:6989  _balances[to] */\n  swap1\n  dup2\n  mstore\n  0x20\n  dup2\n  swap1\n  mstore\n  0x40\n  swap1\n  keccak256\n    /* \"ERC20.sol\":6976:6998  _balances[to] += value */\n  dup1\n  sload\n  dup3\n  add\n  swap1\n  sstore\n    /* \"ERC20.sol\":6598:7023  if (to == address(0)) {... */\ntag_27:\n    /* \"ERC20.sol\":7053:7055  to */\n  dup2\n  sub(shl(0xa0, 0x01), 0x01)\n    /* \"ERC20.sol\":7038:7063  Transfer(from, to, value) */\n  and\n    /* \"ERC20.sol\":7047:7051  from */\n  dup4\n  sub(shl(0xa0, 0x01), 0x01)\n    /* \"ERC20.sol\":7038:7063  Transfer(from, to, value) */\n  and\n  0xddf252ad1be2c89b69c2b068fc378daa952ba7f163c4a11628f55a4df523b3ef\n    /* \"ERC20.sol\":7057:7062  value */\n  dup4\n    /* \"ERC20.sol\":7038:7063  Transfer(from, to, value) */\n  mload(0x40)\n  tag_28\n  swap2\n    /* \"#utility.yul\":3586:3611   */\n  dup2\n  mstore\n    /* \"#utility.yul\":3574:3576   */\n  0x20\n    /* \"#utility.yul\":3559:3577   */\n  add\n  swap1\n    /* \"#utility.yul\":3440:3617   */\n  jump\n    /* \"ERC20.sol\":7038:7063  Transfer(from, to, value) */\ntag_28:\n  mload(0x40)\n  dup1\n  swap2\n  sub\n  swap1\n  log3\n    /* \"ERC20.sol\":5963:7070  function _update(address from, address to, uint256 value) internal virtual {... */\n  pop\n  pop\n  pop\n  jump\t// out\n    /* \"#utility.yul\":14:141   */\ntag_30:\n    /* \"#utility.yul\":75:85   */\n  0x4e487b71\n    /* \"#utility.yul\":70:73   */\n  0xe0\n    /* \"#utility.yul\":66:86   */\n  shl\n    /* \"#utility.yul\":63:64   */\n  0x00\n    /* \"#utility.yul\":56:87   */\n  mstore\n    /* \"#utility.yul\":106:110   */\n  0x41\n    /* \"#utility.yul\":103:104   */\n  0x04\n    /* \"#utility.yul\":96:111   */\n  mstore\n    /* \"#utility.yul\":130:134   */\n  0x24\n    /* \"#utility.yul\":127:128   */\n  0x00\n    /* \"#utility.yul\":120:135   */\n  revert\n    /* \"#utility.yul\":146:526   */\ntag_31:\n    /* \"#utility.yul\":225:226   */\n  0x01\n    /* \"#utility.yul\":221:233   */\n  dup2\n  dup2\n  shr\n  swap1\n    /* \"#utility.yul\":268:280   */\n  dup3\n  and\n  dup1\n    /* \"#utility.yul\":289:350   */\n  tag_38\n  jumpi\n    /* \"#utility.yul\":343:347   */\n  0x7f\n    /* \"#utility.yul\":335:341   */\n  dup3\n    /* \"#utility.yul\":331:348   */\n  and\n    /* \"#utility.yul\":321:348   */\n  swap2\n  pop\n    /* \"#utility.yul\":289:350   */\ntag_38:\n    /* \"#utility.yul\":396:398   */\n  0x20\n    /* \"#utility.yul\":388:394   */\n  dup3\n    /* \"#utility.yul\":385:399   */\n  lt\n    /* \"#utility.yul\":365:383   */\n  dup2\n    /* \"#utility.yul\":362:400   */\n  sub\n    /* \"#utility.yul\":359:520   */\n  tag_39\n  jumpi\n    /* \"#utility.yul\":442:452   */\n  0x4e487b71\n    /* \"#utility.yul\":437:440   */\n  0xe0\n    /* \"#utility.yul\":433:453   */\n  shl\n    /* \"#utility.yul\":430:431   */\n  0x00\n    /* \"#utility.yul\":423:454   */\n  mstore\n    /* \"#utility.yul\":477:481   */\n  0x22\n    /* \"#utility.yul\":474:475   */\n  0x04\n    /* \"#utility.yul\":467:482   */\n  mstore\n    /* \"#utility.yul\":505:509   */\n  0x24\n    /* \"#utility.yul\":502:503   */\n  0x00\n    /* \"#utility.yul\":495:510   */\n  revert\n    /* \"#utility.yul\":359:520   */\ntag_39:\n  pop\n    /* \"#utility.yul\":146:526   */\n  swap2\n  swap1\n  pop\n  jump\t// out\n    /* \"#utility.yul\":657:1175   */\ntag_33:\n    /* \"#utility.yul\":759:761   */\n  0x1f\n    /* \"#utility.yul\":754:757   */\n  dup3\n    /* \"#utility.yul\":751:762   */\n  gt\n    /* \"#utility.yul\":748:1169   */\n  iszero\n  tag_42\n  jumpi\n    /* \"#utility.yul\":795:800   */\n  dup1\n    /* \"#utility.yul\":792:793   */\n  0x00\n    /* \"#utility.yul\":785:801   */\n  mstore\n    /* \"#utility.yul\":839:843   */\n  0x20\n    /* \"#utility.yul\":836:837   */\n  0x00\n    /* \"#utility.yul\":826:844   */\n  keccak256\n    /* \"#utility.yul\":909:911   */\n  0x1f\n    /* \"#utility.yul\":897:907   */\n  dup5\n    /* \"#utility.yul\":893:912   */\n  add\n    /* \"#utility.yul\":890:891   */\n  0x05\n    /* \"#utility.yul\":886:913   */\n  shr\n    /* \"#utility.yul\":880:884   */\n  dup2\n    /* \"#utility.yul\":876:914   */\n  add\n    /* \"#utility.yul\":945:949   */\n  0x20\n    /* \"#utility.yul\":933:943   */\n  dup6\n    /* \"#utility.yul\":930:950   */\n  lt\n    /* \"#utility.yul\":927:974   */\n  iszero\n  tag_43\n  jumpi\n  pop\n    /* \"#utility.yul\":968:972   */\n  dup1\n    /* \"#utility.yul\":927:974   */\ntag_43:\n    /* \"#utility.yul\":1023:1025   */\n  0x1f\n    /* \"#utility.yul\":1018:1021   */\n  dup5\n    /* \"#utility.yul\":1014:1026   */\n  add\n    /* \"#utility.yul\":1011:1012   */\n  0x05\n    /* \"#utility.yul\":1007:1027   */\n  shr\n    /* \"#utility.yul\":1001:1005   */\n  dup3\n    /* \"#utility.yul\":997:1028   */\n  add\n    /* \"#utility.yul\":987:1028   */\n  swap2\n  pop\n    /* \"#utility.yul\":1078:1159   */\ntag_44:\n    /* \"#utility.yul\":1096:1098   */\n  dup2\n    /* \"#utility.yul\":1089:1094   */\n  dup2\n    /* \"#utility.yul\":1086:1099   */\n  lt\n    /* \"#utility.yul\":1078:1159   */\n  iszero\n  tag_46\n  jumpi\n    /* \"#utility.yul\":1155:1156   */\n  0x00\n    /* \"#utility.yul\":1141:1157   */\n  dup2\n  sstore\n    /* \"#utility.yul\":1122:1123   */\n  0x01\n    /* \"#utility.yul\":1111:1124   */\n  add\n    /* \"#utility.yul\":1078:1159   */\n  jump(tag_44)\ntag_46:\n    /* \"#utility.yul\":1082:1085   */\n  pop\n  pop\n    /* \"#utility.yul\":748:1169   */\ntag_42:\n    /* \"#utility.yul\":657:1175   */\n  pop\n  pop\n  pop\n  jump\t// out\n    /* \"#utility.yul\":1351:2650   */\ntag_6:\n    /* \"#utility.yul\":1471:1481   */\n  dup2\n  mload\n  sub(shl(0x40, 0x01), 0x01)\n    /* \"#utility.yul\":1493:1523   */\n  dup2\n  gt\n    /* \"#utility.yul\":1490:1546   */\n  iszero\n  tag_50\n  jumpi\n    /* \"#utility.yul\":1526:1544   */\n  tag_50\n  tag_30\n  jump\t// in\ntag_50:\n    /* \"#utility.yul\":1555:1652   */\n  tag_51\n    /* \"#utility.yul\":1645:1651   */\n  dup2\n    /* \"#utility.yul\":1605:1643   */\n  tag_52\n    /* \"#utility.yul\":1637:1641   */\n  dup5\n    /* \"#utility.yul\":1631:1642   */\n  sload\n    /* \"#utility.yul\":1605:1643   */\n  tag_31\n  jump\t// in\ntag_52:\n    /* \"#utility.yul\":1599:1603   */\n  dup5\n    /* \"#utility.yul\":1555:1652   */\n  tag_33\n  jump\t// in\ntag_51:\n    /* \"#utility.yul\":1701:1705   */\n  0x20\n    /* \"#utility.yul\":1732:1734   */\n  0x1f\n    /* \"#utility.yul\":1721:1735   */\n  dup3\n  gt\n    /* \"#utility.yul\":1749:1750   */\n  0x01\n    /* \"#utility.yul\":1744:2393   */\n  dup2\n  eq\n  tag_54\n  jumpi\n    /* \"#utility.yul\":2437:2438   */\n  0x00\n    /* \"#utility.yul\":2454:2460   */\n  dup4\n    /* \"#utility.yul\":2451:2540   */\n  iszero\n  tag_55\n  jumpi\n  pop\n    /* \"#utility.yul\":2506:2525   */\n  dup5\n  dup3\n  add\n    /* \"#utility.yul\":2500:2526   */\n  mload\n    /* \"#utility.yul\":2451:2540   */\ntag_55:\n  not(0x00)\n    /* \"#utility.yul\":1308:1309   */\n  0x03\n    /* \"#utility.yul\":1304:1315   */\n  dup6\n  swap1\n  shl\n    /* \"#utility.yul\":1300:1324   */\n  shr\n    /* \"#utility.yul\":1296:1325   */\n  not\n    /* \"#utility.yul\":1286:1326   */\n  and\n    /* \"#utility.yul\":1332:1333   */\n  0x01\n    /* \"#utility.yul\":1328:1339   */\n  dup5\n  swap1\n  shl\n    /* \"#utility.yul\":1283:1340   */\n  or\n    /* \"#utility.yul\":2553:2634   */\n  dup5\n  sstore\n    /* \"#utility.yul\":1714:2644   */\n  jump(tag_46)\n    /* \"#utility.yul\":1744:2393   */\ntag_54:\n    /* \"#utility.yul\":604:605   */\n  0x00\n    /* \"#utility.yul\":597:611   */\n  dup5\n  dup2\n  mstore\n    /* \"#utility.yul\":641:645   */\n  0x20\n    /* \"#utility.yul\":628:646   */\n  dup2\n  keccak256\n  not(0x1f)\n    /* \"#utility.yul\":1780:1800   */\n  dup6\n  and\n  swap2\n    /* \"#utility.yul\":1898:2120   */\ntag_58:\n    /* \"#utility.yul\":1912:1919   */\n  dup3\n    /* \"#utility.yul\":1909:1910   */\n  dup2\n    /* \"#utility.yul\":1906:1920   */\n  lt\n    /* \"#utility.yul\":1898:2120   */\n  iszero\n  tag_60\n  jumpi\n    /* \"#utility.yul\":1994:2013   */\n  dup8\n  dup6\n  add\n    /* \"#utility.yul\":1988:2014   */\n  mload\n    /* \"#utility.yul\":1973:2015   */\n  dup3\n  sstore\n    /* \"#utility.yul\":2101:2105   */\n  0x20\n    /* \"#utility.yul\":2086:2106   */\n  swap5\n  dup6\n  add\n  swap5\n    /* \"#utility.yul\":2054:2055   */\n  0x01\n    /* \"#utility.yul\":2042:2056   */\n  swap1\n  swap3\n  add\n  swap2\n    /* \"#utility.yul\":1928:1940   */\n  add\n    /* \"#utility.yul\":1898:2120   */\n  jump(tag_58)\ntag_60:\n    /* \"#utility.yul\":1902:1905   */\n  pop\n    /* \"#utility.yul\":2148:2154   */\n  dup5\n    /* \"#utility.yul\":2139:2146   */\n  dup3\n    /* \"#utility.yul\":2136:2155   */\n  lt\n    /* \"#utility.yul\":2133:2334   */\n  iszero\n  tag_61\n  jumpi\n    /* \"#utility.yul\":2209:2228   */\n  dup7\n  dup5\n  add\n    /* \"#utility.yul\":2203:2229   */\n  mload\n  not(0x00)\n    /* \"#utility.yul\":2292:2293   */\n  0x03\n    /* \"#utility.yul\":2288:2302   */\n  dup8\n  swap1\n  shl\n    /* \"#utility.yul\":2304:2307   */\n  0xf8\n    /* \"#utility.yul\":2284:2308   */\n  and\n    /* \"#utility.yul\":2280:2317   */\n  shr\n    /* \"#utility.yul\":2276:2318   */\n  not\n    /* \"#utility.yul\":2261:2319   */\n  and\n    /* \"#utility.yul\":2246:2320   */\n  dup2\n  sstore\n    /* \"#utility.yul\":2133:2334   */\ntag_61:\n  pop\n  pop\n  pop\n  pop\n    /* \"#utility.yul\":2380:2381   */\n  0x01\n    /* \"#utility.yul\":2364:2378   */\n  swap1\n  dup2\n  shl\n    /* \"#utility.yul\":2360:2382   */\n  add\n    /* \"#utility.yul\":2347:2383   */\n  swap1\n  sstore\n  pop\n    /* \"#utility.yul\":1351:2650   */\n  jump\t// out\n    /* \"#utility.yul\":2863:3085   */\ntag_21:\n    /* \"#utility.yul\":2928:2937   */\n  dup1\n  dup3\n  add\n    /* \"#utility.yul\":2949:2959   */\n  dup1\n  dup3\n  gt\n    /* \"#utility.yul\":2946:3079   */\n  iszero\n  tag_64\n  jumpi\n    /* \"#utility.yul\":3001:3011   */\n  0x4e487b71\n    /* \"#utility.yul\":2996:2999   */\n  0xe0\n    /* \"#utility.yul\":2992:3012   */\n  shl\n    /* \"#utility.yul\":2989:2990   */\n  0x00\n    /* \"#utility.yul\":2982:3013   */\n  mstore\n    /* \"#utility.yul\":3036:3040   */\n  0x11\n    /* \"#utility.yul\":3033:3034   */\n  0x04\n    /* \"#utility.yul\":3026:3041   */\n  mstore\n    /* \"#utility.yul\":3064:3068   */\n  0x24\n    /* \"#utility.yul\":3061:3062   */\n  0x00\n    /* \"#utility.yul\":3054:3069   */\n  revert\n    /* \"#utility.yul\":2946:3079   */\ntag_64:\n    /* \"#utility.yul\":2863:3085   */\n  swap3\n  swap2\n  pop\n  pop\n  jump\t// out\n    /* \"#utility.yul\":3440:3617   */\ntag_35:\n    /* \"contracts/GameToken.sol\":77:553  contract GameToken is ERC20 {... */\n  dataSize(sub_0)\n  dup1\n  dataOffset(sub_0)\n  0x00\n  codecopy\n  0x00\n  return\nstop\n\nsub_0: assembly {\n        /* \"contracts/GameToken.sol\":77:553  contract GameToken is ERC20 {... */\n      mstore(0x40, 0x80)\n      callvalue\n      dup1\n      iszero\n      tag_1\n      jumpi\n      0x00\n      dup1\n      revert\n    tag_1:\n      pop\n      jumpi(tag_2, lt(calldatasize, 0x04))\n      shr(0xe0, calldataload(0x00))\n      dup1\n      0x70a08231\n      gt\n      tag_15\n      jumpi\n      dup1\n      0x70a08231\n      eq\n      tag_9\n      jumpi\n      dup1\n      0x95d89b41\n      eq\n      tag_10\n      jumpi\n      dup1\n      0xa9059cbb\n      eq\n      tag_11\n      jumpi\n      dup1\n      0xdd62ed3e\n      eq\n      tag_12\n      jumpi\n      dup1\n      0xf0dda65c\n      eq\n      tag_13\n      jumpi\n      dup1\n      0xf851a440\n      eq\n      tag_14\n      jumpi\n      0x00\n      dup1\n      revert\n    tag_15:\n      dup1\n      0x06fdde03\n      eq\n      tag_3\n      jumpi\n      dup1\n      0x095ea7b3\n      eq\n      tag_4\n      jumpi\n      dup1\n      0x18160ddd\n      eq\n      tag_5\n      jumpi\n      dup1\n      0x23b872dd\n      eq\n      tag_6\n      jumpi\n      dup1\n      0x313ce567\n      eq\n      tag_7\n      jumpi\n      dup1\n      0x6d1b229d\n      eq\n      tag_8\n      jumpi\n    tag_2:\n      0x00\n      dup1\n      revert\n        /* \"ERC20.sol\":1734:1823  function name() public view virtual returns (string memory) {... */\n    tag_3:\n      tag_16\n      tag_17\n      jump\t// in\n    tag_16:\n      mload(0x40)\n      tag_18\n      swap2\n      swap1\n      tag_19\n      jump\t// in\n    tag_18:\n      mload(0x40)\n      dup1\n      swap2\n      sub\n      swap1\n      return\n        /* \"ERC20.sol\":3953:4139  function approve(address spender, uint256 value) public virtual returns (bool) {... */\n    tag_4:\n      tag_20\n      tag_21\n      calldatasize\n      0x04\n      tag_22\n      jump\t// in\n    tag_21:\n      tag_23\n      jump\t// in\n    tag_20:\n      mload(0x40)\n        /* \"#utility.yul\":1085:1099   */\n      swap1\n      iszero\n        /* \"#utility.yul\":1078:1100   */\n      iszero\n        /* \"#utility.yul\":1060:1101   */\n      dup2\n      mstore\n        /* \"#utility.yul\":1048:1050   */\n      0x20\n        /* \"#utility.yul\":1033:1051   */\n      add\n        /* \"ERC20.sol\":3953:4139  function approve(address spender, uint256 value) public virtual returns (bool) {... */\n      tag_18\n        /* \"#utility.yul\":920:1107   */\n      jump\n        /* \"ERC20.sol\":2804:2901  function totalSupply() public view virtual returns (uint256) {... */\n    tag_5:\n        /* \"ERC20.sol\":2882:2894  _totalSupply */\n      sload(0x02)\n        /* \"ERC20.sol\":2804:2901  function totalSupply() public view virtual returns (uint256) {... */\n    tag_26:\n      mload(0x40)\n        /* \"#utility.yul\":1258:1283   */\n      swap1\n      dup2\n      mstore\n        /* \"#utility.yul\":1246:1248   */\n      0x20\n        /* \"#utility.yul\":1231:1249   */\n      add\n        /* \"ERC20.sol\":2804:2901  function totalSupply() public view virtual returns (uint256) {... */\n      tag_18\n        /* \"#utility.yul\":1112:1289   */\n      jump\n        /* \"ERC20.sol\":4731:4975  function transferFrom(address from, address to, uint256 value) public virtual returns (bool) {... */\n    tag_6:\n      tag_20\n      tag_31\n      calldatasize\n      0x04\n      tag_32\n      jump\t// in\n    tag_31:\n      tag_33\n      jump\t// in\n        /* \"ERC20.sol\":2662:2744  function decimals() public view virtual returns (uint8) {... */\n    tag_7:\n      mload(0x40)\n        /* \"ERC20.sol\":2735:2737  18 */\n      0x12\n        /* \"#utility.yul\":1815:1851   */\n      dup2\n      mstore\n        /* \"#utility.yul\":1803:1805   */\n      0x20\n        /* \"#utility.yul\":1788:1806   */\n      add\n        /* \"ERC20.sol\":2662:2744  function decimals() public view virtual returns (uint8) {... */\n      tag_18\n        /* \"#utility.yul\":1673:1857   */\n      jump\n        /* \"contracts/GameToken.sol\":471:551  function burnTokens(uint value) public {... */\n    tag_8:\n      tag_39\n      tag_40\n      calldatasize\n      0x04\n      tag_41\n      jump\t// in\n    tag_40:\n      tag_42\n      jump\t// in\n    tag_39:\n      stop\n        /* \"ERC20.sol\":2959:3075  function balanceOf(address account) public view virtual returns (uint256) {... */\n    tag_9:\n      tag_26\n      tag_44\n      calldatasize\n      0x04\n      tag_45\n      jump\t// in\n    tag_44:\n      sub(shl(0xa0, 0x01), 0x01)\n        /* \"ERC20.sol\":3050:3068  _balances[account] */\n      and\n        /* \"ERC20.sol\":3024:3031  uint256 */\n      0x00\n        /* \"ERC20.sol\":3050:3068  _balances[account] */\n      swap1\n      dup2\n      mstore\n      0x20\n      dup2\n      swap1\n      mstore\n      0x40\n      swap1\n      keccak256\n      sload\n      swap1\n        /* \"ERC20.sol\":2959:3075  function balanceOf(address account) public view virtual returns (uint256) {... */\n      jump\n        /* \"ERC20.sol\":1936:2029  function symbol() public view virtual returns (string memory) {... */\n    tag_10:\n      tag_16\n      tag_49\n      jump\t// in\n        /* \"ERC20.sol\":3270:3448  function transfer(address to, uint256 value) public virtual returns (bool) {... */\n    tag_11:\n      tag_20\n      tag_52\n      calldatasize\n      0x04\n      tag_22\n      jump\t// in\n    tag_52:\n      tag_53\n      jump\t// in\n        /* \"ERC20.sol\":3506:3646  function allowance(address owner, address spender) public view virtual returns (uint256) {... */\n    tag_12:\n      tag_26\n      tag_56\n      calldatasize\n      0x04\n      tag_57\n      jump\t// in\n    tag_56:\n      sub(shl(0xa0, 0x01), 0x01)\n        /* \"ERC20.sol\":3612:3630  _allowances[owner] */\n      swap2\n      dup3\n      and\n        /* \"ERC20.sol\":3586:3593  uint256 */\n      0x00\n        /* \"ERC20.sol\":3612:3630  _allowances[owner] */\n      swap1\n      dup2\n      mstore\n        /* \"ERC20.sol\":3612:3623  _allowances */\n      0x01\n        /* \"ERC20.sol\":3612:3630  _allowances[owner] */\n      0x20\n      swap1\n      dup2\n      mstore\n      0x40\n      dup1\n      dup4\n      keccak256\n        /* \"ERC20.sol\":3612:3639  _allowances[owner][spender] */\n      swap4\n      swap1\n      swap5\n      and\n      dup3\n      mstore\n      swap2\n      swap1\n      swap2\n      mstore\n      keccak256\n      sload\n      swap1\n        /* \"ERC20.sol\":3506:3646  function allowance(address owner, address spender) public view virtual returns (uint256) {... */\n      jump\n        /* \"contracts/GameToken.sol\":371:465  function mintTokens(address to, uint value) public onlyAdmin {... */\n    tag_13:\n      tag_39\n      tag_61\n      calldatasize\n      0x04\n      tag_22\n      jump\t// in\n    tag_61:\n      tag_62\n      jump\t// in\n        /* \"contracts/GameToken.sol\":111:131  address public admin */\n    tag_14:\n      sload(0x05)\n      tag_63\n      swap1\n      sub(shl(0xa0, 0x01), 0x01)\n      and\n      dup2\n      jump\n    tag_63:\n      mload(0x40)\n      sub(shl(0xa0, 0x01), 0x01)\n        /* \"#utility.yul\":2713:2745   */\n      swap1\n      swap2\n      and\n        /* \"#utility.yul\":2695:2746   */\n      dup2\n      mstore\n        /* \"#utility.yul\":2683:2685   */\n      0x20\n        /* \"#utility.yul\":2668:2686   */\n      add\n        /* \"contracts/GameToken.sol\":111:131  address public admin */\n      tag_18\n        /* \"#utility.yul\":2549:2752   */\n      jump\n        /* \"ERC20.sol\":1734:1823  function name() public view virtual returns (string memory) {... */\n    tag_17:\n        /* \"ERC20.sol\":1779:1792  string memory */\n      0x60\n        /* \"ERC20.sol\":1811:1816  _name */\n      0x03\n        /* \"ERC20.sol\":1804:1816  return _name */\n      dup1\n      sload\n      tag_68\n      swap1\n      tag_69\n      jump\t// in\n    tag_68:\n      dup1\n      0x1f\n      add\n      0x20\n      dup1\n      swap2\n      div\n      mul\n      0x20\n      add\n      mload(0x40)\n      swap1\n      dup2\n      add\n      0x40\n      mstore\n      dup1\n      swap3\n      swap2\n      swap1\n      dup2\n      dup2\n      mstore\n      0x20\n      add\n      dup3\n      dup1\n      sload\n      tag_70\n      swap1\n      tag_69\n      jump\t// in\n    tag_70:\n      dup1\n      iszero\n      tag_71\n      jumpi\n      dup1\n      0x1f\n      lt\n      tag_72\n      jumpi\n      0x0100\n      dup1\n      dup4\n      sload\n      div\n      mul\n      dup4\n      mstore\n      swap2\n      0x20\n      add\n      swap2\n      jump(tag_71)\n    tag_72:\n      dup3\n      add\n      swap2\n      swap1\n      0x00\n      mstore\n      keccak256(0x00, 0x20)\n      swap1\n    tag_73:\n      dup2\n      sload\n      dup2\n      mstore\n      swap1\n      0x01\n      add\n      swap1\n      0x20\n      add\n      dup1\n      dup4\n      gt\n      tag_73\n      jumpi\n      dup3\n      swap1\n      sub\n      0x1f\n      and\n      dup3\n      add\n      swap2\n    tag_71:\n      pop\n      pop\n      pop\n      pop\n      pop\n      swap1\n      pop\n        /* \"ERC20.sol\":1734:1823  function name() public view virtual returns (string memory) {... */\n      swap1\n      jump\t// out\n        /* \"ERC20.sol\":3953:4139  function approve(address spender, uint256 value) public virtual returns (bool) {... */\n    tag_23:\n        /* \"ERC20.sol\":4026:4030  bool */\n      0x00\n        /* \"Context.sol\":735:745  msg.sender */\n      caller\n        /* \"ERC20.sol\":4080:4111  _approve(owner, spender, value) */\n      tag_77\n        /* \"Context.sol\":735:745  msg.sender */\n      dup2\n        /* \"ERC20.sol\":4096:4103  spender */\n      dup6\n        /* \"ERC20.sol\":4105:4110  value */\n      dup6\n        /* \"ERC20.sol\":4080:4088  _approve */\n      tag_78\n        /* \"ERC20.sol\":4080:4111  _approve(owner, spender, value) */\n      jump\t// in\n    tag_77:\n        /* \"ERC20.sol\":4128:4132  true */\n      0x01\n        /* \"ERC20.sol\":4121:4132  return true */\n      swap2\n      pop\n      pop\n        /* \"ERC20.sol\":3953:4139  function approve(address spender, uint256 value) public virtual returns (bool) {... */\n    tag_74:\n      swap3\n      swap2\n      pop\n      pop\n      jump\t// out\n        /* \"ERC20.sol\":4731:4975  function transferFrom(address from, address to, uint256 value) public virtual returns (bool) {... */\n    tag_33:\n        /* \"ERC20.sol\":4818:4822  bool */\n      0x00\n        /* \"Context.sol\":735:745  msg.sender */\n      caller\n        /* \"ERC20.sol\":4874:4911  _spendAllowance(from, spender, value) */\n      tag_82\n        /* \"ERC20.sol\":4890:4894  from */\n      dup6\n        /* \"Context.sol\":735:745  msg.sender */\n      dup3\n        /* \"ERC20.sol\":4905:4910  value */\n      dup6\n        /* \"ERC20.sol\":4874:4889  _spendAllowance */\n      tag_83\n        /* \"ERC20.sol\":4874:4911  _spendAllowance(from, spender, value) */\n      jump\t// in\n    tag_82:\n        /* \"ERC20.sol\":4921:4947  _transfer(from, to, value) */\n      tag_84\n        /* \"ERC20.sol\":4931:4935  from */\n      dup6\n        /* \"ERC20.sol\":4937:4939  to */\n      dup6\n        /* \"ERC20.sol\":4941:4946  value */\n      dup6\n        /* \"ERC20.sol\":4921:4930  _transfer */\n      tag_85\n        /* \"ERC20.sol\":4921:4947  _transfer(from, to, value) */\n      jump\t// in\n    tag_84:\n      pop\n        /* \"ERC20.sol\":4964:4968  true */\n      0x01\n      swap5\n        /* \"ERC20.sol\":4731:4975  function transferFrom(address from, address to, uint256 value) public virtual returns (bool) {... */\n      swap4\n      pop\n      pop\n      pop\n      pop\n      jump\t// out\n        /* \"contracts/GameToken.sol\":471:551  function burnTokens(uint value) public {... */\n    tag_42:\n        /* \"contracts/GameToken.sol\":520:544  _burn(msg.sender, value) */\n      tag_88\n        /* \"contracts/GameToken.sol\":526:536  msg.sender */\n      caller\n        /* \"contracts/GameToken.sol\":538:543  value */\n      dup3\n        /* \"contracts/GameToken.sol\":520:525  _burn */\n      tag_89\n        /* \"contracts/GameToken.sol\":520:544  _burn(msg.sender, value) */\n      jump\t// in\n    tag_88:\n        /* \"contracts/GameToken.sol\":471:551  function burnTokens(uint value) public {... */\n      pop\n      jump\t// out\n        /* \"ERC20.sol\":1936:2029  function symbol() public view virtual returns (string memory) {... */\n    tag_49:\n        /* \"ERC20.sol\":1983:1996  string memory */\n      0x60\n        /* \"ERC20.sol\":2015:2022  _symbol */\n      0x04\n        /* \"ERC20.sol\":2008:2022  return _symbol */\n      dup1\n      sload\n      tag_68\n      swap1\n      tag_69\n      jump\t// in\n        /* \"ERC20.sol\":3270:3448  function transfer(address to, uint256 value) public virtual returns (bool) {... */\n    tag_53:\n        /* \"ERC20.sol\":3339:3343  bool */\n      0x00\n        /* \"Context.sol\":735:745  msg.sender */\n      caller\n        /* \"ERC20.sol\":3393:3420  _transfer(owner, to, value) */\n      tag_77\n        /* \"Context.sol\":735:745  msg.sender */\n      dup2\n        /* \"ERC20.sol\":3410:3412  to */\n      dup6\n        /* \"ERC20.sol\":3414:3419  value */\n      dup6\n        /* \"ERC20.sol\":3393:3402  _transfer */\n      tag_85\n        /* \"ERC20.sol\":3393:3420  _transfer(owner, to, value) */\n      jump\t// in\n        /* \"contracts/GameToken.sol\":371:465  function mintTokens(address to, uint value) public onlyAdmin {... */\n    tag_62:\n        /* \"contracts/GameToken.sol\":325:330  admin */\n      and(sub(shl(0xa0, 0x01), 0x01), sload(0x05))\n        /* \"contracts/GameToken.sol\":311:321  msg.sender */\n      caller\n        /* \"contracts/GameToken.sol\":311:330  msg.sender == admin */\n      eq\n        /* \"contracts/GameToken.sol\":303:347  require(msg.sender == admin, \"Unauthorized\") */\n      tag_102\n      jumpi\n      mload(0x40)\n      shl(0xe5, 0x461bcd)\n      dup2\n      mstore\n        /* \"#utility.yul\":3344:3346   */\n      0x20\n        /* \"contracts/GameToken.sol\":303:347  require(msg.sender == admin, \"Unauthorized\") */\n      0x04\n      dup3\n      add\n        /* \"#utility.yul\":3326:3347   */\n      mstore\n        /* \"#utility.yul\":3383:3385   */\n      0x0c\n        /* \"#utility.yul\":3363:3381   */\n      0x24\n      dup3\n      add\n        /* \"#utility.yul\":3356:3386   */\n      mstore\n      shl(0xa2, 0x155b985d5d1a1bdc9a5e9959)\n        /* \"#utility.yul\":3402:3420   */\n      0x44\n      dup3\n      add\n        /* \"#utility.yul\":3395:3437   */\n      mstore\n        /* \"#utility.yul\":3454:3472   */\n      0x64\n      add\n        /* \"contracts/GameToken.sol\":303:347  require(msg.sender == admin, \"Unauthorized\") */\n    tag_103:\n      mload(0x40)\n      dup1\n      swap2\n      sub\n      swap1\n      revert\n    tag_102:\n        /* \"contracts/GameToken.sol\":442:458  _mint(to, value) */\n      tag_106\n        /* \"contracts/GameToken.sol\":448:450  to */\n      dup3\n        /* \"contracts/GameToken.sol\":452:457  value */\n      dup3\n        /* \"contracts/GameToken.sol\":442:447  _mint */\n      tag_107\n        /* \"contracts/GameToken.sol\":442:458  _mint(to, value) */\n      jump\t// in\n    tag_106:\n        /* \"contracts/GameToken.sol\":371:465  function mintTokens(address to, uint value) public onlyAdmin {... */\n      pop\n      pop\n      jump\t// out\n        /* \"ERC20.sol\":8681:8809  function _approve(address owner, address spender, uint256 value) internal {... */\n    tag_78:\n        /* \"ERC20.sol\":8765:8802  _approve(owner, spender, value, true) */\n      tag_110\n        /* \"ERC20.sol\":8774:8779  owner */\n      dup4\n        /* \"ERC20.sol\":8781:8788  spender */\n      dup4\n        /* \"ERC20.sol\":8790:8795  value */\n      dup4\n        /* \"ERC20.sol\":8797:8801  true */\n      0x01\n        /* \"ERC20.sol\":8765:8773  _approve */\n      tag_111\n        /* \"ERC20.sol\":8765:8802  _approve(owner, spender, value, true) */\n      jump\t// in\n    tag_110:\n        /* \"ERC20.sol\":8681:8809  function _approve(address owner, address spender, uint256 value) internal {... */\n      pop\n      pop\n      pop\n      jump\t// out\n        /* \"ERC20.sol\":10370:10847  function _spendAllowance(address owner, address spender, uint256 value) internal virtual {... */\n    tag_83:\n      sub(shl(0xa0, 0x01), 0x01)\n        /* \"ERC20.sol\":3612:3630  _allowances[owner] */\n      dup4\n      dup2\n      and\n        /* \"ERC20.sol\":10469:10493  uint256 currentAllowance */\n      0x00\n        /* \"ERC20.sol\":3612:3630  _allowances[owner] */\n      swap1\n      dup2\n      mstore\n        /* \"ERC20.sol\":3612:3623  _allowances */\n      0x01\n        /* \"ERC20.sol\":3612:3630  _allowances[owner] */\n      0x20\n      swap1\n      dup2\n      mstore\n      0x40\n      dup1\n      dup4\n      keccak256\n        /* \"ERC20.sol\":3612:3639  _allowances[owner][spender] */\n      swap4\n      dup7\n      and\n      dup4\n      mstore\n      swap3\n      swap1\n      mstore\n      keccak256\n      sload\n      not(0x00)\n        /* \"ERC20.sol\":10535:10572  currentAllowance != type(uint256).max */\n      dup2\n      eq\n        /* \"ERC20.sol\":10531:10841  if (currentAllowance != type(uint256).max) {... */\n      tag_118\n      jumpi\n        /* \"ERC20.sol\":10611:10616  value */\n      dup2\n        /* \"ERC20.sol\":10592:10608  currentAllowance */\n      dup2\n        /* \"ERC20.sol\":10592:10616  currentAllowance < value */\n      lt\n        /* \"ERC20.sol\":10588:10718  if (currentAllowance < value) {... */\n      iszero\n      tag_115\n      jumpi\n        /* \"ERC20.sol\":10643:10703  ERC20InsufficientAllowance(spender, currentAllowance, value) */\n      mload(0x40)\n      shl(0xe1, 0x7dc7a0d9)\n      dup2\n      mstore\n      sub(shl(0xa0, 0x01), 0x01)\n        /* \"#utility.yul\":3703:3735   */\n      dup5\n      and\n        /* \"ERC20.sol\":10643:10703  ERC20InsufficientAllowance(spender, currentAllowance, value) */\n      0x04\n      dup3\n      add\n        /* \"#utility.yul\":3685:3736   */\n      mstore\n        /* \"#utility.yul\":3752:3770   */\n      0x24\n      dup2\n      add\n        /* \"#utility.yul\":3745:3779   */\n      dup3\n      swap1\n      mstore\n        /* \"#utility.yul\":3795:3813   */\n      0x44\n      dup2\n      add\n        /* \"#utility.yul\":3788:3822   */\n      dup4\n      swap1\n      mstore\n        /* \"#utility.yul\":3658:3676   */\n      0x64\n      add\n        /* \"ERC20.sol\":10643:10703  ERC20InsufficientAllowance(spender, currentAllowance, value) */\n      tag_103\n        /* \"#utility.yul\":3483:3828   */\n      jump\n        /* \"ERC20.sol\":10588:10718  if (currentAllowance < value) {... */\n    tag_115:\n        /* \"ERC20.sol\":10759:10816  _approve(owner, spender, currentAllowance - value, false) */\n      tag_118\n        /* \"ERC20.sol\":10768:10773  owner */\n      dup5\n        /* \"ERC20.sol\":10775:10782  spender */\n      dup5\n        /* \"ERC20.sol\":10803:10808  value */\n      dup5\n        /* \"ERC20.sol\":10784:10800  currentAllowance */\n      dup5\n        /* \"ERC20.sol\":10784:10808  currentAllowance - value */\n      sub\n        /* \"ERC20.sol\":10810:10815  false */\n      0x00\n        /* \"ERC20.sol\":10759:10767  _approve */\n      tag_111\n        /* \"ERC20.sol\":10759:10816  _approve(owner, spender, currentAllowance - value, false) */\n      jump\t// in\n    tag_118:\n        /* \"ERC20.sol\":10459:10847  {... */\n      pop\n        /* \"ERC20.sol\":10370:10847  function _spendAllowance(address owner, address spender, uint256 value) internal virtual {... */\n      pop\n      pop\n      pop\n      jump\t// out\n        /* \"ERC20.sol\":5348:5648  function _transfer(address from, address to, uint256 value) internal {... */\n    tag_85:\n      sub(shl(0xa0, 0x01), 0x01)\n        /* \"ERC20.sol\":5431:5449  from == address(0) */\n      dup4\n      and\n        /* \"ERC20.sol\":5427:5513  if (from == address(0)) {... */\n      tag_120\n      jumpi\n        /* \"ERC20.sol\":5472:5502  ERC20InvalidSender(address(0)) */\n      mload(0x40)\n      shl(0xe1, 0x4b637e8f)\n      dup2\n      mstore\n        /* \"ERC20.sol\":5499:5500  0 */\n      0x00\n        /* \"ERC20.sol\":5472:5502  ERC20InvalidSender(address(0)) */\n      0x04\n      dup3\n      add\n        /* \"#utility.yul\":2695:2746   */\n      mstore\n        /* \"#utility.yul\":2668:2686   */\n      0x24\n      add\n        /* \"ERC20.sol\":5472:5502  ERC20InvalidSender(address(0)) */\n      tag_103\n        /* \"#utility.yul\":2549:2752   */\n      jump\n        /* \"ERC20.sol\":5427:5513  if (from == address(0)) {... */\n    tag_120:\n      sub(shl(0xa0, 0x01), 0x01)\n        /* \"ERC20.sol\":5526:5542  to == address(0) */\n      dup3\n      and\n        /* \"ERC20.sol\":5522:5608  if (to == address(0)) {... */\n      tag_122\n      jumpi\n        /* \"ERC20.sol\":5565:5597  ERC20InvalidReceiver(address(0)) */\n      mload(0x40)\n      shl(0xe0, 0xec442f05)\n      dup2\n      mstore\n        /* \"ERC20.sol\":5594:5595  0 */\n      0x00\n        /* \"ERC20.sol\":5565:5597  ERC20InvalidReceiver(address(0)) */\n      0x04\n      dup3\n      add\n        /* \"#utility.yul\":2695:2746   */\n      mstore\n        /* \"#utility.yul\":2668:2686   */\n      0x24\n      add\n        /* \"ERC20.sol\":5565:5597  ERC20InvalidReceiver(address(0)) */\n      tag_103\n        /* \"#utility.yul\":2549:2752   */\n      jump\n        /* \"ERC20.sol\":5522:5608  if (to == address(0)) {... */\n    tag_122:\n        /* \"ERC20.sol\":5617:5641  _update(from, to, value) */\n      tag_110\n        /* \"ERC20.sol\":5625:5629  from */\n      dup4\n        /* \"ERC20.sol\":5631:5633  to */\n      dup4\n        /* \"ERC20.sol\":5635:5640  value */\n      dup4\n        /* \"ERC20.sol\":5617:5624  _update */\n      tag_125\n        /* \"ERC20.sol\":5617:5641  _update(from, to, value) */\n      jump\t// in\n        /* \"ERC20.sol\":7939:8145  function _burn(address account, uint256 value) internal {... */\n    tag_89:\n      sub(shl(0xa0, 0x01), 0x01)\n        /* \"ERC20.sol\":8009:8030  account == address(0) */\n      dup3\n      and\n        /* \"ERC20.sol\":8005:8094  if (account == address(0)) {... */\n      tag_127\n      jumpi\n        /* \"ERC20.sol\":8053:8083  ERC20InvalidSender(address(0)) */\n      mload(0x40)\n      shl(0xe1, 0x4b637e8f)\n      dup2\n      mstore\n        /* \"ERC20.sol\":8080:8081  0 */\n      0x00\n        /* \"ERC20.sol\":8053:8083  ERC20InvalidSender(address(0)) */\n      0x04\n      dup3\n      add\n        /* \"#utility.yul\":2695:2746   */\n      mstore\n        /* \"#utility.yul\":2668:2686   */\n      0x24\n      add\n        /* \"ERC20.sol\":8053:8083  ERC20InvalidSender(address(0)) */\n      tag_103\n        /* \"#utility.yul\":2549:2752   */\n      jump\n        /* \"ERC20.sol\":8005:8094  if (account == address(0)) {... */\n    tag_127:\n        /* \"ERC20.sol\":8103:8138  _update(account, address(0), value) */\n      tag_106\n        /* \"ERC20.sol\":8111:8118  account */\n      dup3\n        /* \"ERC20.sol\":8128:8129  0 */\n      0x00\n        /* \"ERC20.sol\":8132:8137  value */\n      dup4\n        /* \"ERC20.sol\":8103:8110  _update */\n      tag_125\n        /* \"ERC20.sol\":8103:8138  _update(account, address(0), value) */\n      jump\t// in\n        /* \"ERC20.sol\":7413:7621  function _mint(address account, uint256 value) internal {... */\n    tag_107:\n      sub(shl(0xa0, 0x01), 0x01)\n        /* \"ERC20.sol\":7483:7504  account == address(0) */\n      dup3\n      and\n        /* \"ERC20.sol\":7479:7570  if (account == address(0)) {... */\n      tag_131\n      jumpi\n        /* \"ERC20.sol\":7527:7559  ERC20InvalidReceiver(address(0)) */\n      mload(0x40)\n      shl(0xe0, 0xec442f05)\n      dup2\n      mstore\n        /* \"ERC20.sol\":7556:7557  0 */\n      0x00\n        /* \"ERC20.sol\":7527:7559  ERC20InvalidReceiver(address(0)) */\n      0x04\n      dup3\n      add\n        /* \"#utility.yul\":2695:2746   */\n      mstore\n        /* \"#utility.yul\":2668:2686   */\n      0x24\n      add\n        /* \"ERC20.sol\":7527:7559  ERC20InvalidReceiver(address(0)) */\n      tag_103\n        /* \"#utility.yul\":2549:2752   */\n      jump\n        /* \"ERC20.sol\":7479:7570  if (account == address(0)) {... */\n    tag_131:\n        /* \"ERC20.sol\":7579:7614  _update(address(0), account, value) */\n      tag_106\n        /* \"ERC20.sol\":7595:7596  0 */\n      0x00\n        /* \"ERC20.sol\":7599:7606  account */\n      dup4\n        /* \"ERC20.sol\":7608:7613  value */\n      dup4\n        /* \"ERC20.sol\":7579:7586  _update */\n      tag_125\n        /* \"ERC20.sol\":7579:7614  _update(address(0), account, value) */\n      jump\t// in\n        /* \"ERC20.sol\":9656:10088  function _approve(address owner, address spender, uint256 value, bool emitEvent) internal virtual {... */\n    tag_111:\n      sub(shl(0xa0, 0x01), 0x01)\n        /* \"ERC20.sol\":9768:9787  owner == address(0) */\n      dup5\n      and\n        /* \"ERC20.sol\":9764:9853  if (owner == address(0)) {... */\n      tag_135\n      jumpi\n        /* \"ERC20.sol\":9810:9842  ERC20InvalidApprover(address(0)) */\n      mload(0x40)\n      shl(0xe0, 0xe602df05)\n      dup2\n      mstore\n        /* \"ERC20.sol\":9839:9840  0 */\n      0x00\n        /* \"ERC20.sol\":9810:9842  ERC20InvalidApprover(address(0)) */\n      0x04\n      dup3\n      add\n        /* \"#utility.yul\":2695:2746   */\n      mstore\n        /* \"#utility.yul\":2668:2686   */\n      0x24\n      add\n        /* \"ERC20.sol\":9810:9842  ERC20InvalidApprover(address(0)) */\n      tag_103\n        /* \"#utility.yul\":2549:2752   */\n      jump\n        /* \"ERC20.sol\":9764:9853  if (owner == address(0)) {... */\n    tag_135:\n      sub(shl(0xa0, 0x01), 0x01)\n        /* \"ERC20.sol\":9866:9887  spender == address(0) */\n      dup4\n      and\n        /* \"ERC20.sol\":9862:9952  if (spender == address(0)) {... */\n      tag_137\n      jumpi\n        /* \"ERC20.sol\":9910:9941  ERC20InvalidSpender(address(0)) */\n      mload(0x40)\n      shl(0xe1, 0x4a1406b1)\n      dup2\n      mstore\n        /* \"ERC20.sol\":9938:9939  0 */\n      0x00\n        /* \"ERC20.sol\":9910:9941  ERC20InvalidSpender(address(0)) */\n      0x04\n      dup3\n      add\n        /* \"#utility.yul\":2695:2746   */\n      mstore\n        /* \"#utility.yul\":2668:2686   */\n      0x24\n      add\n        /* \"ERC20.sol\":9910:9941  ERC20InvalidSpender(address(0)) */\n      tag_103\n        /* \"#utility.yul\":2549:2752   */\n      jump\n        /* \"ERC20.sol\":9862:9952  if (spender == address(0)) {... */\n    tag_137:\n      sub(shl(0xa0, 0x01), 0x01)\n        /* \"ERC20.sol\":9961:9979  _allowances[owner] */\n      dup1\n      dup6\n      and\n      0x00\n      swap1\n      dup2\n      mstore\n        /* \"ERC20.sol\":9961:9972  _allowances */\n      0x01\n        /* \"ERC20.sol\":9961:9979  _allowances[owner] */\n      0x20\n      swap1\n      dup2\n      mstore\n      0x40\n      dup1\n      dup4\n      keccak256\n        /* \"ERC20.sol\":9961:9988  _allowances[owner][spender] */\n      swap4\n      dup8\n      and\n      dup4\n      mstore\n      swap3\n      swap1\n      mstore\n      keccak256\n        /* \"ERC20.sol\":9961:9996  _allowances[owner][spender] = value */\n      dup3\n      swap1\n      sstore\n        /* \"ERC20.sol\":10006:10082  if (emitEvent) {... */\n      dup1\n      iszero\n      tag_118\n      jumpi\n        /* \"ERC20.sol\":10056:10063  spender */\n      dup3\n      sub(shl(0xa0, 0x01), 0x01)\n        /* \"ERC20.sol\":10040:10071  Approval(owner, spender, value) */\n      and\n        /* \"ERC20.sol\":10049:10054  owner */\n      dup5\n      sub(shl(0xa0, 0x01), 0x01)\n        /* \"ERC20.sol\":10040:10071  Approval(owner, spender, value) */\n      and\n      0x8c5be1e5ebec7d5bd14f71427d1e84f3dd0314c0f7b2291e5b200ac8c7c3b925\n        /* \"ERC20.sol\":10065:10070  value */\n      dup5\n        /* \"ERC20.sol\":10040:10071  Approval(owner, spender, value) */\n      mload(0x40)\n      tag_140\n      swap2\n        /* \"#utility.yul\":1258:1283   */\n      dup2\n      mstore\n        /* \"#utility.yul\":1246:1248   */\n      0x20\n        /* \"#utility.yul\":1231:1249   */\n      add\n      swap1\n        /* \"#utility.yul\":1112:1289   */\n      jump\n        /* \"ERC20.sol\":10040:10071  Approval(owner, spender, value) */\n    tag_140:\n      mload(0x40)\n      dup1\n      swap2\n      sub\n      swap1\n      log3\n        /* \"ERC20.sol\":9656:10088  function _approve(address owner, address spender, uint256 value, bool emitEvent) internal virtual {... */\n      pop\n      pop\n      pop\n      pop\n      jump\t// out\n        /* \"ERC20.sol\":5963:7070  function _update(address from, address to, uint256 value) internal virtual {... */\n    tag_125:\n      sub(shl(0xa0, 0x01), 0x01)\n        /* \"ERC20.sol\":6052:6070  from == address(0) */\n      dup4\n      and\n        /* \"ERC20.sol\":6048:6588  if (from == address(0)) {... */\n      tag_142\n      jumpi\n        /* \"ERC20.sol\":6204:6209  value */\n      dup1\n        /* \"ERC20.sol\":6188:6200  _totalSupply */\n      0x02\n      0x00\n        /* \"ERC20.sol\":6188:6209  _totalSupply += value */\n      dup3\n      dup3\n      sload\n      tag_143\n      swap2\n      swap1\n      tag_144\n      jump\t// in\n    tag_143:\n      swap1\n      swap2\n      sstore\n      pop\n        /* \"ERC20.sol\":6048:6588  if (from == address(0)) {... */\n      tag_145\n      swap1\n      pop\n      jump\n    tag_142:\n      sub(shl(0xa0, 0x01), 0x01)\n        /* \"ERC20.sol\":6262:6277  _balances[from] */\n      dup4\n      and\n        /* \"ERC20.sol\":6240:6259  uint256 fromBalance */\n      0x00\n        /* \"ERC20.sol\":6262:6277  _balances[from] */\n      swap1\n      dup2\n      mstore\n      0x20\n      dup2\n      swap1\n      mstore\n      0x40\n      swap1\n      keccak256\n      sload\n        /* \"ERC20.sol\":6295:6314  fromBalance < value */\n      dup2\n      dup2\n      lt\n        /* \"ERC20.sol\":6291:6406  if (fromBalance < value) {... */\n      iszero\n      tag_146\n      jumpi\n        /* \"ERC20.sol\":6341:6391  ERC20InsufficientBalance(from, fromBalance, value) */\n      mload(0x40)\n      shl(0xe2, 0x391434e3)\n      dup2\n      mstore\n      sub(shl(0xa0, 0x01), 0x01)\n        /* \"#utility.yul\":3703:3735   */\n      dup6\n      and\n        /* \"ERC20.sol\":6341:6391  ERC20InsufficientBalance(from, fromBalance, value) */\n      0x04\n      dup3\n      add\n        /* \"#utility.yul\":3685:3736   */\n      mstore\n        /* \"#utility.yul\":3752:3770   */\n      0x24\n      dup2\n      add\n        /* \"#utility.yul\":3745:3779   */\n      dup3\n      swap1\n      mstore\n        /* \"#utility.yul\":3795:3813   */\n      0x44\n      dup2\n      add\n        /* \"#utility.yul\":3788:3822   */\n      dup4\n      swap1\n      mstore\n        /* \"#utility.yul\":3658:3676   */\n      0x64\n      add\n        /* \"ERC20.sol\":6341:6391  ERC20InsufficientBalance(from, fromBalance, value) */\n      tag_103\n        /* \"#utility.yul\":3483:3828   */\n      jump\n        /* \"ERC20.sol\":6291:6406  if (fromBalance < value) {... */\n    tag_146:\n      sub(shl(0xa0, 0x01), 0x01)\n        /* \"ERC20.sol\":6526:6541  _balances[from] */\n      dup5\n      and\n        /* \"ERC20.sol\":6526:6535  _balances */\n      0x00\n        /* \"ERC20.sol\":6526:6541  _balances[from] */\n      swap1\n      dup2\n      mstore\n      0x20\n      dup2\n      swap1\n      mstore\n      0x40\n      swap1\n      keccak256\n        /* \"ERC20.sol\":6544:6563  fromBalance - value */\n      swap1\n      dup3\n      swap1\n      sub\n        /* \"ERC20.sol\":6526:6563  _balances[from] = fromBalance - value */\n      swap1\n      sstore\n        /* \"ERC20.sol\":6048:6588  if (from == address(0)) {... */\n    tag_145:\n      sub(shl(0xa0, 0x01), 0x01)\n        /* \"ERC20.sol\":6602:6618  to == address(0) */\n      dup3\n      and\n        /* \"ERC20.sol\":6598:7023  if (to == address(0)) {... */\n      tag_148\n      jumpi\n        /* \"ERC20.sol\":6765:6777  _totalSupply */\n      0x02\n        /* \"ERC20.sol\":6765:6786  _totalSupply -= value */\n      dup1\n      sload\n      dup3\n      swap1\n      sub\n      swap1\n      sstore\n        /* \"ERC20.sol\":6598:7023  if (to == address(0)) {... */\n      jump(tag_149)\n    tag_148:\n      sub(shl(0xa0, 0x01), 0x01)\n        /* \"ERC20.sol\":6976:6989  _balances[to] */\n      dup3\n      and\n        /* \"ERC20.sol\":6976:6985  _balances */\n      0x00\n        /* \"ERC20.sol\":6976:6989  _balances[to] */\n      swap1\n      dup2\n      mstore\n      0x20\n      dup2\n      swap1\n      mstore\n      0x40\n      swap1\n      keccak256\n        /* \"ERC20.sol\":6976:6998  _balances[to] += value */\n      dup1\n      sload\n      dup3\n      add\n      swap1\n      sstore\n        /* \"ERC20.sol\":6598:7023  if (to == address(0)) {... */\n    tag_149:\n        /* \"ERC20.sol\":7053:7055  to */\n      dup2\n      sub(shl(0xa0, 0x01), 0x01)\n        /* \"ERC20.sol\":7038:7063  Transfer(from, to, value) */\n      and\n        /* \"ERC20.sol\":7047:7051  from */\n      dup4\n      sub(shl(0xa0, 0x01), 0x01)\n        /* \"ERC20.sol\":7038:7063  Transfer(from, to, value) */\n      and\n      0xddf252ad1be2c89b69c2b068fc378daa952ba7f163c4a11628f55a4df523b3ef\n        /* \"ERC20.sol\":7057:7062  value */\n      dup4\n        /* \"ERC20.sol\":7038:7063  Transfer(from, to, value) */\n      mload(0x40)\n      tag_150\n      swap2\n        /* \"#utility.yul\":1258:1283   */\n      dup2\n      mstore\n        /* \"#utility.yul\":1246:1248   */\n      0x20\n        /* \"#utility.yul\":1231:1249   */\n      add\n      swap1\n        /* \"#utility.yul\":1112:1289   */\n      jump\n        /* \"ERC20.sol\":7038:7063  Transfer(from, to, value) */\n    tag_150:\n      mload(0x40)\n      dup1\n      swap2\n      sub\n      swap1\n      log3\n        /* \"ERC20.sol\":5963:7070  function _update(address from, address to, uint256 value) internal virtual {... */\n      pop\n      pop\n      pop\n      jump\t// out\n        /* \"#utility.yul\":14:432   */\n    tag_19:\n        /* \"#utility.yul\":163:165   */\n      0x20\n        /* \"#utility.yul\":152:161   */\n      dup2\n        /* \"#utility.yul\":145:166   */\n      mstore\n        /* \"#utility.yul\":126:130   */\n      0x00\n        /* \"#utility.yul\":195:201   */\n      dup3\n        /* \"#utility.yul\":189:202   */\n      mload\n        /* \"#utility.yul\":238:244   */\n      dup1\n        /* \"#utility.yul\":233:235   */\n      0x20\n        /* \"#utility.yul\":222:231   */\n      dup5\n        /* \"#utility.yul\":218:236   */\n      add\n        /* \"#utility.yul\":211:245   */\n      mstore\n        /* \"#utility.yul\":297:303   */\n      dup1\n        /* \"#utility.yul\":292:294   */\n      0x20\n        /* \"#utility.yul\":284:290   */\n      dup6\n        /* \"#utility.yul\":280:295   */\n      add\n        /* \"#utility.yul\":275:277   */\n      0x40\n        /* \"#utility.yul\":264:273   */\n      dup6\n        /* \"#utility.yul\":260:278   */\n      add\n        /* \"#utility.yul\":254:304   */\n      mcopy\n        /* \"#utility.yul\":353:354   */\n      0x00\n        /* \"#utility.yul\":348:350   */\n      0x40\n        /* \"#utility.yul\":339:345   */\n      dup3\n        /* \"#utility.yul\":328:337   */\n      dup6\n        /* \"#utility.yul\":324:346   */\n      add\n        /* \"#utility.yul\":320:351   */\n      add\n        /* \"#utility.yul\":313:355   */\n      mstore\n        /* \"#utility.yul\":423:425   */\n      0x40\n        /* \"#utility.yul\":416:418   */\n      0x1f\n        /* \"#utility.yul\":412:419   */\n      not\n        /* \"#utility.yul\":407:409   */\n      0x1f\n        /* \"#utility.yul\":399:405   */\n      dup4\n        /* \"#utility.yul\":395:410   */\n      add\n        /* \"#utility.yul\":391:420   */\n      and\n        /* \"#utility.yul\":380:389   */\n      dup5\n        /* \"#utility.yul\":376:421   */\n      add\n        /* \"#utility.yul\":372:426   */\n      add\n        /* \"#utility.yul\":364:426   */\n      swap2\n      pop\n      pop\n        /* \"#utility.yul\":14:432   */\n      swap3\n      swap2\n      pop\n      pop\n      jump\t// out\n        /* \"#utility.yul\":437:610   */\n    tag_151:\n        /* \"#utility.yul\":505:525   */\n      dup1\n      calldataload\n      sub(shl(0xa0, 0x01), 0x01)\n        /* \"#utility.yul\":554:585   */\n      dup2\n      and\n        /* \"#utility.yul\":544:586   */\n      dup2\n      eq\n        /* \"#utility.yul\":534:604   */\n      tag_155\n      jumpi\n        /* \"#utility.yul\":600:601   */\n      0x00\n        /* \"#utility.yul\":597:598   */\n      dup1\n        /* \"#utility.yul\":590:602   */\n      revert\n        /* \"#utility.yul\":534:604   */\n    tag_155:\n        /* \"#utility.yul\":437:610   */\n      swap2\n      swap1\n      pop\n      jump\t// out\n        /* \"#utility.yul\":615:915   */\n    tag_22:\n        /* \"#utility.yul\":683:689   */\n      0x00\n        /* \"#utility.yul\":691:697   */\n      dup1\n        /* \"#utility.yul\":744:746   */\n      0x40\n        /* \"#utility.yul\":732:741   */\n      dup4\n        /* \"#utility.yul\":723:730   */\n      dup6\n        /* \"#utility.yul\":719:742   */\n      sub\n        /* \"#utility.yul\":715:747   */\n      slt\n        /* \"#utility.yul\":712:764   */\n      iszero\n      tag_157\n      jumpi\n        /* \"#utility.yul\":760:761   */\n      0x00\n        /* \"#utility.yul\":757:758   */\n      dup1\n        /* \"#utility.yul\":750:762   */\n      revert\n        /* \"#utility.yul\":712:764   */\n    tag_157:\n        /* \"#utility.yul\":783:812   */\n      tag_158\n        /* \"#utility.yul\":802:811   */\n      dup4\n        /* \"#utility.yul\":783:812   */\n      tag_151\n      jump\t// in\n    tag_158:\n        /* \"#utility.yul\":773:812   */\n      swap5\n        /* \"#utility.yul\":881:883   */\n      0x20\n        /* \"#utility.yul\":866:884   */\n      swap4\n      swap1\n      swap4\n      add\n        /* \"#utility.yul\":853:885   */\n      calldataload\n      swap4\n      pop\n      pop\n      pop\n        /* \"#utility.yul\":615:915   */\n      jump\t// out\n        /* \"#utility.yul\":1294:1668   */\n    tag_32:\n        /* \"#utility.yul\":1371:1377   */\n      0x00\n        /* \"#utility.yul\":1379:1385   */\n      dup1\n        /* \"#utility.yul\":1387:1393   */\n      0x00\n        /* \"#utility.yul\":1440:1442   */\n      0x60\n        /* \"#utility.yul\":1428:1437   */\n      dup5\n        /* \"#utility.yul\":1419:1426   */\n      dup7\n        /* \"#utility.yul\":1415:1438   */\n      sub\n        /* \"#utility.yul\":1411:1443   */\n      slt\n        /* \"#utility.yul\":1408:1460   */\n      iszero\n      tag_162\n      jumpi\n        /* \"#utility.yul\":1456:1457   */\n      0x00\n        /* \"#utility.yul\":1453:1454   */\n      dup1\n        /* \"#utility.yul\":1446:1458   */\n      revert\n        /* \"#utility.yul\":1408:1460   */\n    tag_162:\n        /* \"#utility.yul\":1479:1508   */\n      tag_163\n        /* \"#utility.yul\":1498:1507   */\n      dup5\n        /* \"#utility.yul\":1479:1508   */\n      tag_151\n      jump\t// in\n    tag_163:\n        /* \"#utility.yul\":1469:1508   */\n      swap3\n      pop\n        /* \"#utility.yul\":1527:1565   */\n      tag_164\n        /* \"#utility.yul\":1561:1563   */\n      0x20\n        /* \"#utility.yul\":1550:1559   */\n      dup6\n        /* \"#utility.yul\":1546:1564   */\n      add\n        /* \"#utility.yul\":1527:1565   */\n      tag_151\n      jump\t// in\n    tag_164:\n        /* \"#utility.yul\":1294:1668   */\n      swap3\n      swap6\n        /* \"#utility.yul\":1517:1565   */\n      swap3\n      swap5\n      pop\n      pop\n      pop\n        /* \"#utility.yul\":1634:1636   */\n      0x40\n        /* \"#utility.yul\":1619:1637   */\n      swap2\n      swap1\n      swap2\n      add\n        /* \"#utility.yul\":1606:1638   */\n      calldataload\n      swap1\n        /* \"#utility.yul\":1294:1668   */\n      jump\t// out\n        /* \"#utility.yul\":1862:2088   */\n    tag_41:\n        /* \"#utility.yul\":1921:1927   */\n      0x00\n        /* \"#utility.yul\":1974:1976   */\n      0x20\n        /* \"#utility.yul\":1962:1971   */\n      dup3\n        /* \"#utility.yul\":1953:1960   */\n      dup5\n        /* \"#utility.yul\":1949:1972   */\n      sub\n        /* \"#utility.yul\":1945:1977   */\n      slt\n        /* \"#utility.yul\":1942:1994   */\n      iszero\n      tag_167\n      jumpi\n        /* \"#utility.yul\":1990:1991   */\n      0x00\n        /* \"#utility.yul\":1987:1988   */\n      dup1\n        /* \"#utility.yul\":1980:1992   */\n      revert\n        /* \"#utility.yul\":1942:1994   */\n    tag_167:\n      pop\n        /* \"#utility.yul\":2035:2058   */\n      calldataload\n      swap2\n        /* \"#utility.yul\":1862:2088   */\n      swap1\n      pop\n      jump\t// out\n        /* \"#utility.yul\":2093:2279   */\n    tag_45:\n        /* \"#utility.yul\":2152:2158   */\n      0x00\n        /* \"#utility.yul\":2205:2207   */\n      0x20\n        /* \"#utility.yul\":2193:2202   */\n      dup3\n        /* \"#utility.yul\":2184:2191   */\n      dup5\n        /* \"#utility.yul\":2180:2203   */\n      sub\n        /* \"#utility.yul\":2176:2208   */\n      slt\n        /* \"#utility.yul\":2173:2225   */\n      iszero\n      tag_169\n      jumpi\n        /* \"#utility.yul\":2221:2222   */\n      0x00\n        /* \"#utility.yul\":2218:2219   */\n      dup1\n        /* \"#utility.yul\":2211:2223   */\n      revert\n        /* \"#utility.yul\":2173:2225   */\n    tag_169:\n        /* \"#utility.yul\":2244:2273   */\n      tag_170\n        /* \"#utility.yul\":2263:2272   */\n      dup3\n        /* \"#utility.yul\":2244:2273   */\n      tag_151\n      jump\t// in\n    tag_170:\n        /* \"#utility.yul\":2234:2273   */\n      swap4\n        /* \"#utility.yul\":2093:2279   */\n      swap3\n      pop\n      pop\n      pop\n      jump\t// out\n        /* \"#utility.yul\":2284:2544   */\n    tag_57:\n        /* \"#utility.yul\":2352:2358   */\n      0x00\n        /* \"#utility.yul\":2360:2366   */\n      dup1\n        /* \"#utility.yul\":2413:2415   */\n      0x40\n        /* \"#utility.yul\":2401:2410   */\n      dup4\n        /* \"#utility.yul\":2392:2399   */\n      dup6\n        /* \"#utility.yul\":2388:2411   */\n      sub\n        /* \"#utility.yul\":2384:2416   */\n      slt\n        /* \"#utility.yul\":2381:2433   */\n      iszero\n      tag_172\n      jumpi\n        /* \"#utility.yul\":2429:2430   */\n      0x00\n        /* \"#utility.yul\":2426:2427   */\n      dup1\n        /* \"#utility.yul\":2419:2431   */\n      revert\n        /* \"#utility.yul\":2381:2433   */\n    tag_172:\n        /* \"#utility.yul\":2452:2481   */\n      tag_173\n        /* \"#utility.yul\":2471:2480   */\n      dup4\n        /* \"#utility.yul\":2452:2481   */\n      tag_151\n      jump\t// in\n    tag_173:\n        /* \"#utility.yul\":2442:2481   */\n      swap2\n      pop\n        /* \"#utility.yul\":2500:2538   */\n      tag_174\n        /* \"#utility.yul\":2534:2536   */\n      0x20\n        /* \"#utility.yul\":2523:2532   */\n      dup5\n        /* \"#utility.yul\":2519:2537   */\n      add\n        /* \"#utility.yul\":2500:2538   */\n      tag_151\n      jump\t// in\n    tag_174:\n        /* \"#utility.yul\":2490:2538   */\n      swap1\n      pop\n        /* \"#utility.yul\":2284:2544   */\n      swap3\n      pop\n      swap3\n      swap1\n      pop\n      jump\t// out\n        /* \"#utility.yul\":2757:3137   */\n    tag_69:\n        /* \"#utility.yul\":2836:2837   */\n      0x01\n        /* \"#utility.yul\":2832:2844   */\n      dup2\n      dup2\n      shr\n      swap1\n        /* \"#utility.yul\":2879:2891   */\n      dup3\n      and\n      dup1\n        /* \"#utility.yul\":2900:2961   */\n      tag_177\n      jumpi\n        /* \"#utility.yul\":2954:2958   */\n      0x7f\n        /* \"#utility.yul\":2946:2952   */\n      dup3\n        /* \"#utility.yul\":2942:2959   */\n      and\n        /* \"#utility.yul\":2932:2959   */\n      swap2\n      pop\n        /* \"#utility.yul\":2900:2961   */\n    tag_177:\n        /* \"#utility.yul\":3007:3009   */\n      0x20\n        /* \"#utility.yul\":2999:3005   */\n      dup3\n        /* \"#utility.yul\":2996:3010   */\n      lt\n        /* \"#utility.yul\":2976:2994   */\n      dup2\n        /* \"#utility.yul\":2973:3011   */\n      sub\n        /* \"#utility.yul\":2970:3131   */\n      tag_178\n      jumpi\n        /* \"#utility.yul\":3053:3063   */\n      0x4e487b71\n        /* \"#utility.yul\":3048:3051   */\n      0xe0\n        /* \"#utility.yul\":3044:3064   */\n      shl\n        /* \"#utility.yul\":3041:3042   */\n      0x00\n        /* \"#utility.yul\":3034:3065   */\n      mstore\n        /* \"#utility.yul\":3088:3092   */\n      0x22\n        /* \"#utility.yul\":3085:3086   */\n      0x04\n        /* \"#utility.yul\":3078:3093   */\n      mstore\n        /* \"#utility.yul\":3116:3120   */\n      0x24\n        /* \"#utility.yul\":3113:3114   */\n      0x00\n        /* \"#utility.yul\":3106:3121   */\n      revert\n        /* \"#utility.yul\":2970:3131   */\n    tag_178:\n      pop\n        /* \"#utility.yul\":2757:3137   */\n      swap2\n      swap1\n      pop\n      jump\t// out\n        /* \"#utility.yul\":3833:4055   */\n    tag_144:\n        /* \"#utility.yul\":3898:3907   */\n      dup1\n      dup3\n      add\n        /* \"#utility.yul\":3919:3929   */\n      dup1\n      dup3\n      gt\n        /* \"#utility.yul\":3916:4049   */\n      iszero\n      tag_74\n      jumpi\n        /* \"#utility.yul\":3971:3981   */\n      0x4e487b71\n        /* \"#utility.yul\":3966:3969   */\n      0xe0\n        /* \"#utility.yul\":3962:3982   */\n      shl\n        /* \"#utility.yul\":3959:3960   */\n      0x00\n        /* \"#utility.yul\":3952:3983   */\n      mstore\n        /* \"#utility.yul\":4006:4010   */\n      0x11\n        /* \"#utility.yul\":4003:4004   */\n      0x04\n        /* \"#utility.yul\":3996:4011   */\n      mstore\n        /* \"#utility.yul\":4034:4038   */\n      0x24\n        /* \"#utility.yul\":4031:4032   */\n      0x00\n        /* \"#utility.yul\":4024:4039   */\n      revert\n\n    auxdata: 0xa2646970667358221220bf95607444b8822a53ca3f8d86ee923f334aa985a7e52cebe17d6b73f546e03064736f6c634300081a0033\n}\n",
				"bytecode": {
					"linkReferences": {},
					"object": "608060405234801561000f575f80fd5b506040518060400160405280600a81526020016923b0b6b2902a37b5b2b760b11b8152506040518060400160405280600281526020016111d560f21b815250816003908161005d9190610299565b50600461006a8282610299565b5050506100873369d3c21bcecceda100000061009e60201b60201c565b600580546001600160a01b03191633179055610378565b6001600160a01b0382166100cc5760405163ec442f0560e01b81525f60048201526024015b60405180910390fd5b6100d75f83836100db565b5050565b6001600160a01b038316610105578060025f8282546100fa9190610353565b909155506101759050565b6001600160a01b0383165f90815260208190526040902054818110156101575760405163391434e360e21b81526001600160a01b038516600482015260248101829052604481018390526064016100c3565b6001600160a01b0384165f9081526020819052604090209082900390555b6001600160a01b038216610191576002805482900390556101af565b6001600160a01b0382165f9081526020819052604090208054820190555b816001600160a01b0316836001600160a01b03167fddf252ad1be2c89b69c2b068fc378daa952ba7f163c4a11628f55a4df523b3ef836040516101f491815260200190565b60405180910390a3505050565b634e487b7160e01b5f52604160045260245ffd5b600181811c9082168061022957607f821691505b60208210810361024757634e487b7160e01b5f52602260045260245ffd5b50919050565b601f82111561029457805f5260205f20601f840160051c810160208510156102725750805b601f840160051c820191505b81811015610291575f815560010161027e565b50505b505050565b81516001600160401b038111156102b2576102b2610201565b6102c6816102c08454610215565b8461024d565b6020601f8211600181146102f8575f83156102e15750848201515b5f19600385901b1c1916600184901b178455610291565b5f84815260208120601f198516915b828110156103275787850151825560209485019460019092019101610307565b508482101561034457868401515f19600387901b60f8161c191681555b50505050600190811b01905550565b8082018082111561037257634e487b7160e01b5f52601160045260245ffd5b92915050565b61083a806103855f395ff3fe608060405234801561000f575f80fd5b50600436106100b1575f3560e01c806370a082311161006e57806370a082311461013f57806395d89b4114610167578063a9059cbb1461016f578063dd62ed3e14610182578063f0dda65c146101ba578063f851a440146101cd575f80fd5b806306fdde03146100b5578063095ea7b3146100d357806318160ddd146100f657806323b872dd14610108578063313ce5671461011b5780636d1b229d1461012a575b5f80fd5b6100bd6101f8565b6040516100ca9190610693565b60405180910390f35b6100e66100e13660046106e3565b610288565b60405190151581526020016100ca565b6002545b6040519081526020016100ca565b6100e661011636600461070b565b6102a1565b604051601281526020016100ca565b61013d610138366004610745565b6102c4565b005b6100fa61014d36600461075c565b6001600160a01b03165f9081526020819052604090205490565b6100bd6102d1565b6100e661017d3660046106e3565b6102e0565b6100fa61019036600461077c565b6001600160a01b039182165f90815260016020908152604080832093909416825291909152205490565b61013d6101c83660046106e3565b6102ed565b6005546101e0906001600160a01b031681565b6040516001600160a01b0390911681526020016100ca565b606060038054610207906107ad565b80601f0160208091040260200160405190810160405280929190818152602001828054610233906107ad565b801561027e5780601f106102555761010080835404028352916020019161027e565b820191905f5260205f20905b81548152906001019060200180831161026157829003601f168201915b5050505050905090565b5f33610295818585610349565b60019150505b92915050565b5f336102ae85828561035b565b6102b98585856103d6565b506001949350505050565b6102ce3382610433565b50565b606060048054610207906107ad565b5f336102958185856103d6565b6005546001600160a01b0316331461033b5760405162461bcd60e51b815260206004820152600c60248201526b155b985d5d1a1bdc9a5e995960a21b60448201526064015b60405180910390fd5b6103458282610467565b5050565b610356838383600161049b565b505050565b6001600160a01b038381165f908152600160209081526040808320938616835292905220545f1981146103d057818110156103c257604051637dc7a0d960e11b81526001600160a01b03841660048201526024810182905260448101839052606401610332565b6103d084848484035f61049b565b50505050565b6001600160a01b0383166103ff57604051634b637e8f60e11b81525f6004820152602401610332565b6001600160a01b0382166104285760405163ec442f0560e01b81525f6004820152602401610332565b61035683838361056d565b6001600160a01b03821661045c57604051634b637e8f60e11b81525f6004820152602401610332565b610345825f8361056d565b6001600160a01b0382166104905760405163ec442f0560e01b81525f6004820152602401610332565b6103455f838361056d565b6001600160a01b0384166104c45760405163e602df0560e01b81525f6004820152602401610332565b6001600160a01b0383166104ed57604051634a1406b160e11b81525f6004820152602401610332565b6001600160a01b038085165f90815260016020908152604080832093871683529290522082905580156103d057826001600160a01b0316846001600160a01b03167f8c5be1e5ebec7d5bd14f71427d1e84f3dd0314c0f7b2291e5b200ac8c7c3b9258460405161055f91815260200190565b60405180910390a350505050565b6001600160a01b038316610597578060025f82825461058c91906107e5565b909155506106079050565b6001600160a01b0383165f90815260208190526040902054818110156105e95760405163391434e360e21b81526001600160a01b03851660048201526024810182905260448101839052606401610332565b6001600160a01b0384165f9081526020819052604090209082900390555b6001600160a01b03821661062357600280548290039055610641565b6001600160a01b0382165f9081526020819052604090208054820190555b816001600160a01b0316836001600160a01b03167fddf252ad1be2c89b69c2b068fc378daa952ba7f163c4a11628f55a4df523b3ef8360405161068691815260200190565b60405180910390a3505050565b602081525f82518060208401528060208501604085015e5f604082850101526040601f19601f83011684010191505092915050565b80356001600160a01b03811681146106de575f80fd5b919050565b5f80604083850312156106f4575f80fd5b6106fd836106c8565b946020939093013593505050565b5f805f6060848603121561071d575f80fd5b610726846106c8565b9250610734602085016106c8565b929592945050506040919091013590565b5f60208284031215610755575f80fd5b5035919050565b5f6020828403121561076c575f80fd5b610775826106c8565b9392505050565b5f806040838503121561078d575f80fd5b610796836106c8565b91506107a4602084016106c8565b90509250929050565b600181811c908216806107c157607f821691505b6020821081036107df57634e487b7160e01b5f52602260045260245ffd5b50919050565b8082018082111561029b57634e487b7160e01b5f52601160045260245ffdfea2646970667358221220bf95607444b8822a53ca3f8d86ee923f334aa985a7e52cebe17d6b73f546e03064736f6c634300081a0033",
					"opcodes": "PUSH1 0x80 PUSH1 0x40 MSTORE CALLVALUE DUP1 ISZERO PUSH2 0xF JUMPI PUSH0 DUP1 REVERT JUMPDEST POP PUSH1 0x40 MLOAD DUP1 PUSH1 0x40 ADD PUSH1 0x40 MSTORE DUP1 PUSH1 0xA DUP2 MSTORE PUSH1 0x20 ADD PUSH10 0x23B0B6B2902A37B5B2B7 PUSH1 0xB1 SHL DUP2 MSTORE POP PUSH1 0x40 MLOAD DUP1 PUSH1 0x40 ADD PUSH1 0x40 MSTORE DUP1 PUSH1 0x2 DUP2 MSTORE PUSH1 0x20 ADD PUSH2 0x11D5 PUSH1 0xF2 SHL DUP2 MSTORE POP DUP2 PUSH1 0x3 SWAP1 DUP2 PUSH2 0x5D SWAP2 SWAP1 PUSH2 0x299 JUMP JUMPDEST POP PUSH1 0x4 PUSH2 0x6A DUP3 DUP3 PUSH2 0x299 JUMP JUMPDEST POP POP POP PUSH2 0x87 CALLER PUSH10 0xD3C21BCECCEDA1000000 PUSH2 0x9E PUSH1 0x20 SHL PUSH1 0x20 SHR JUMP JUMPDEST PUSH1 0x5 DUP1 SLOAD PUSH1 0x1 PUSH1 0x1 PUSH1 0xA0 SHL SUB NOT AND CALLER OR SWAP1 SSTORE PUSH2 0x378 JUMP JUMPDEST PUSH1 0x1 PUSH1 0x1 PUSH1 0xA0 SHL SUB DUP3 AND PUSH2 0xCC JUMPI PUSH1 0x40 MLOAD PUSH4 0xEC442F05 PUSH1 0xE0 SHL DUP2 MSTORE PUSH0 PUSH1 0x4 DUP3 ADD MSTORE PUSH1 0x24 ADD JUMPDEST PUSH1 0x40 MLOAD DUP1 SWAP2 SUB SWAP1 REVERT JUMPDEST PUSH2 0xD7 PUSH0 DUP4 DUP4 PUSH2 0xDB JUMP JUMPDEST POP POP JUMP JUMPDEST PUSH1 0x1 PUSH1 0x1 PUSH1 0xA0 SHL SUB DUP4 AND PUSH2 0x105 JUMPI DUP1 PUSH1 0x2 PUSH0 DUP3 DUP3 SLOAD PUSH2 0xFA SWAP2 SWAP1 PUSH2 0x353 JUMP JUMPDEST SWAP1 SWAP2 SSTORE POP PUSH2 0x175 SWAP1 POP JUMP JUMPDEST PUSH1 0x1 PUSH1 0x1 PUSH1 0xA0 SHL SUB DUP4 AND PUSH0 SWAP1 DUP2 MSTORE PUSH1 0x20 DUP2 SWAP1 MSTORE PUSH1 0x40 SWAP1 KECCAK256 SLOAD DUP2 DUP2 LT ISZERO PUSH2 0x157 JUMPI PUSH1 0x40 MLOAD PUSH4 0x391434E3 PUSH1 0xE2 SHL DUP2 MSTORE PUSH1 0x1 PUSH1 0x1 PUSH1 0xA0 SHL SUB DUP6 AND PUSH1 0x4 DUP3 ADD MSTORE PUSH1 0x24 DUP2 ADD DUP3 SWAP1 MSTORE PUSH1 0x44 DUP2 ADD DUP4 SWAP1 MSTORE PUSH1 0x64 ADD PUSH2 0xC3 JUMP JUMPDEST PUSH1 0x1 PUSH1 0x1 PUSH1 0xA0 SHL SUB DUP5 AND PUSH0 SWAP1 DUP2 MSTORE PUSH1 0x20 DUP2 SWAP1 MSTORE PUSH1 0x40 SWAP1 KECCAK256 SWAP1 DUP3 SWAP1 SUB SWAP1 SSTORE JUMPDEST PUSH1 0x1 PUSH1 0x1 PUSH1 0xA0 SHL SUB DUP3 AND PUSH2 0x191 JUMPI PUSH1 0x2 DUP1 SLOAD DUP3 SWAP1 SUB SWAP1 SSTORE PUSH2 0x1AF JUMP JUMPDEST PUSH1 0x1 PUSH1 0x1 PUSH1 0xA0 SHL SUB DUP3 AND PUSH0 SWAP1 DUP2 MSTORE PUSH1 0x20 DUP2 SWAP1 MSTORE PUSH1 0x40 SWAP1 KECCAK256 DUP1 SLOAD DUP3 ADD SWAP1 SSTORE JUMPDEST DUP2 PUSH1 0x1 PUSH1 0x1 PUSH1 0xA0 SHL SUB AND DUP4 PUSH1 0x1 PUSH1 0x1 PUSH1 0xA0 SHL SUB AND PUSH32 0xDDF252AD1BE2C89B69C2B068FC378DAA952BA7F163C4A11628F55A4DF523B3EF DUP4 PUSH1 0x40 MLOAD PUSH2 0x1F4 SWAP2 DUP2 MSTORE PUSH1 0x20 ADD SWAP1 JUMP JUMPDEST PUSH1 0x40 MLOAD DUP1 SWAP2 SUB SWAP1 LOG3 POP POP POP JUMP JUMPDEST PUSH4 0x4E487B71 PUSH1 0xE0 SHL PUSH0 MSTORE PUSH1 0x41 PUSH1 0x4 MSTORE PUSH1 0x24 PUSH0 REVERT JUMPDEST PUSH1 0x1 DUP2 DUP2 SHR SWAP1 DUP3 AND DUP1 PUSH2 0x229 JUMPI PUSH1 0x7F DUP3 AND SWAP2 POP JUMPDEST PUSH1 0x20 DUP3 LT DUP2 SUB PUSH2 0x247 JUMPI PUSH4 0x4E487B71 PUSH1 0xE0 SHL PUSH0 MSTORE PUSH1 0x22 PUSH1 0x4 MSTORE PUSH1 0x24 PUSH0 REVERT JUMPDEST POP SWAP2 SWAP1 POP JUMP JUMPDEST PUSH1 0x1F DUP3 GT ISZERO PUSH2 0x294 JUMPI DUP1 PUSH0 MSTORE PUSH1 0x20 PUSH0 KECCAK256 PUSH1 0x1F DUP5 ADD PUSH1 0x5 SHR DUP2 ADD PUSH1 0x20 DUP6 LT ISZERO PUSH2 0x272 JUMPI POP DUP1 JUMPDEST PUSH1 0x1F DUP5 ADD PUSH1 0x5 SHR DUP3 ADD SWAP2 POP JUMPDEST DUP2 DUP2 LT ISZERO PUSH2 0x291 JUMPI PUSH0 DUP2 SSTORE PUSH1 0x1 ADD PUSH2 0x27E JUMP JUMPDEST POP POP JUMPDEST POP POP POP JUMP JUMPDEST DUP2 MLOAD PUSH1 0x1 PUSH1 0x1 PUSH1 0x40 SHL SUB DUP2 GT ISZERO PUSH2 0x2B2 JUMPI PUSH2 0x2B2 PUSH2 0x201 JUMP JUMPDEST PUSH2 0x2C6 DUP2 PUSH2 0x2C0 DUP5 SLOAD PUSH2 0x215 JUMP JUMPDEST DUP5 PUSH2 0x24D JUMP JUMPDEST PUSH1 0x20 PUSH1 0x1F DUP3 GT PUSH1 0x1 DUP2 EQ PUSH2 0x2F8 JUMPI PUSH0 DUP4 ISZERO PUSH2 0x2E1 JUMPI POP DUP5 DUP3 ADD MLOAD JUMPDEST PUSH0 NOT PUSH1 0x3 DUP6 SWAP1 SHL SHR NOT AND PUSH1 0x1 DUP5 SWAP1 SHL OR DUP5 SSTORE PUSH2 0x291 JUMP JUMPDEST PUSH0 DUP5 DUP2 MSTORE PUSH1 0x20 DUP2 KECCAK256 PUSH1 0x1F NOT DUP6 AND SWAP2 JUMPDEST DUP3 DUP2 LT ISZERO PUSH2 0x327 JUMPI DUP8 DUP6 ADD MLOAD DUP3 SSTORE PUSH1 0x20 SWAP5 DUP6 ADD SWAP5 PUSH1 0x1 SWAP1 SWAP3 ADD SWAP2 ADD PUSH2 0x307 JUMP JUMPDEST POP DUP5 DUP3 LT ISZERO PUSH2 0x344 JUMPI DUP7 DUP5 ADD MLOAD PUSH0 NOT PUSH1 0x3 DUP8 SWAP1 SHL PUSH1 0xF8 AND SHR NOT AND DUP2 SSTORE JUMPDEST POP POP POP POP PUSH1 0x1 SWAP1 DUP2 SHL ADD SWAP1 SSTORE POP JUMP JUMPDEST DUP1 DUP3 ADD DUP1 DUP3 GT ISZERO PUSH2 0x372 JUMPI PUSH4 0x4E487B71 PUSH1 0xE0 SHL PUSH0 MSTORE PUSH1 0x11 PUSH1 0x4 MSTORE PUSH1 0x24 PUSH0 REVERT JUMPDEST SWAP3 SWAP2 POP POP JUMP JUMPDEST PUSH2 0x83A DUP1 PUSH2 0x385 PUSH0 CODECOPY PUSH0 RETURN INVALID PUSH1 0x80 PUSH1 0x40 MSTORE CALLVALUE DUP1 ISZERO PUSH2 0xF JUMPI PUSH0 DUP1 REVERT JUMPDEST POP PUSH1 0x4 CALLDATASIZE LT PUSH2 0xB1 JUMPI PUSH0 CALLDATALOAD PUSH1 0xE0 SHR DUP1 PUSH4 0x70A08231 GT PUSH2 0x6E JUMPI DUP1 PUSH4 0x70A08231 EQ PUSH2 0x13F JUMPI DUP1 PUSH4 0x95D89B41 EQ PUSH2 0x167 JUMPI DUP1 PUSH4 0xA9059CBB EQ PUSH2 0x16F JUMPI DUP1 PUSH4 0xDD62ED3E EQ PUSH2 0x182 JUMPI DUP1 PUSH4 0xF0DDA65C EQ PUSH2 0x1BA JUMPI DUP1 PUSH4 0xF851A440 EQ PUSH2 0x1CD JUMPI PUSH0 DUP1 REVERT JUMPDEST DUP1 PUSH4 0x6FDDE03 EQ PUSH2 0xB5 JUMPI DUP1 PUSH4 0x95EA7B3 EQ PUSH2 0xD3 JUMPI DUP1 PUSH4 0x18160DDD EQ PUSH2 0xF6 JUMPI DUP1 PUSH4 0x23B872DD EQ PUSH2 0x108 JUMPI DUP1 PUSH4 0x313CE567 EQ PUSH2 0x11B JUMPI DUP1 PUSH4 0x6D1B229D EQ PUSH2 0x12A JUMPI JUMPDEST PUSH0 DUP1 REVERT JUMPDEST PUSH2 0xBD PUSH2 0x1F8 JUMP JUMPDEST PUSH1 0x40 MLOAD PUSH2 0xCA SWAP2 SWAP1 PUSH2 0x693 JUMP JUMPDEST PUSH1 0x40 MLOAD DUP1 SWAP2 SUB SWAP1 RETURN JUMPDEST PUSH2 0xE6 PUSH2 0xE1 CALLDATASIZE PUSH1 0x4 PUSH2 0x6E3 JUMP JUMPDEST PUSH2 0x288 JUMP JUMPDEST PUSH1 0x40 MLOAD SWAP1 ISZERO ISZERO DUP2 MSTORE PUSH1 0x20 ADD PUSH2 0xCA JUMP JUMPDEST PUSH1 0x2 SLOAD JUMPDEST PUSH1 0x40 MLOAD SWAP1 DUP2 MSTORE PUSH1 0x20 ADD PUSH2 0xCA JUMP JUMPDEST PUSH2 0xE6 PUSH2 0x116 CALLDATASIZE PUSH1 0x4 PUSH2 0x70B JUMP JUMPDEST PUSH2 0x2A1 JUMP JUMPDEST PUSH1 0x40 MLOAD PUSH1 0x12 DUP2 MSTORE PUSH1 0x20 ADD PUSH2 0xCA JUMP JUMPDEST PUSH2 0x13D PUSH2 0x138 CALLDATASIZE PUSH1 0x4 PUSH2 0x745 JUMP JUMPDEST PUSH2 0x2C4 JUMP JUMPDEST STOP JUMPDEST PUSH2 0xFA PUSH2 0x14D CALLDATASIZE PUSH1 0x4 PUSH2 0x75C JUMP JUMPDEST PUSH1 0x1 PUSH1 0x1 PUSH1 0xA0 SHL SUB AND PUSH0 SWAP1 DUP2 MSTORE PUSH1 0x20 DUP2 SWAP1 MSTORE PUSH1 0x40 SWAP1 KECCAK256 SLOAD SWAP1 JUMP JUMPDEST PUSH2 0xBD PUSH2 0x2D1 JUMP JUMPDEST PUSH2 0xE6 PUSH2 0x17D CALLDATASIZE PUSH1 0x4 PUSH2 0x6E3 JUMP JUMPDEST PUSH2 0x2E0 JUMP JUMPDEST PUSH2 0xFA PUSH2 0x190 CALLDATASIZE PUSH1 0x4 PUSH2 0x77C JUMP JUMPDEST PUSH1 0x1 PUSH1 0x1 PUSH1 0xA0 SHL SUB SWAP2 DUP3 AND PUSH0 SWAP1 DUP2 MSTORE PUSH1 0x1 PUSH1 0x20 SWAP1 DUP2 MSTORE PUSH1 0x40 DUP1 DUP4 KECCAK256 SWAP4 SWAP1 SWAP5 AND DUP3 MSTORE SWAP2 SWAP1 SWAP2 MSTORE KECCAK256 SLOAD SWAP1 JUMP JUMPDEST PUSH2 0x13D PUSH2 0x1C8 CALLDATASIZE PUSH1 0x4 PUSH2 0x6E3 JUMP JUMPDEST PUSH2 0x2ED JUMP JUMPDEST PUSH1 0x5 SLOAD PUSH2 0x1E0 SWAP1 PUSH1 0x1 PUSH1 0x1 PUSH1 0xA0 SHL SUB AND DUP2 JUMP JUMPDEST PUSH1 0x40 MLOAD PUSH1 0x1 PUSH1 0x1 PUSH1 0xA0 SHL SUB SWAP1 SWAP2 AND DUP2 MSTORE PUSH1 0x20 ADD PUSH2 0xCA JUMP JUMPDEST PUSH1 0x60 PUSH1 0x3 DUP1 SLOAD PUSH2 0x207 SWAP1 PUSH2 0x7AD JUMP JUMPDEST DUP1 PUSH1 0x1F ADD PUSH1 0x20 DUP1 SWAP2 DIV MUL PUSH1 0x20 ADD PUSH1 0x40 MLOAD SWAP1 DUP2 ADD PUSH1 0x40 MSTORE DUP1 SWAP3 SWAP2 SWAP1 DUP2 DUP2 MSTORE PUSH1 0x20 ADD DUP3 DUP1 SLOAD PUSH2 0x233 SWAP1 PUSH2 0x7AD JUMP JUMPDEST DUP1 ISZERO PUSH2 0x27E JUMPI DUP1 PUSH1 0x1F LT PUSH2 0x255 JUMPI PUSH2 0x100 DUP1 DUP4 SLOAD DIV MUL DUP4 MSTORE SWAP2 PUSH1 0x20 ADD SWAP2 PUSH2 0x27E JUMP JUMPDEST DUP3 ADD SWAP2 SWAP1 PUSH0 MSTORE PUSH1 0x20 PUSH0 KECCAK256 SWAP1 JUMPDEST DUP2 SLOAD DUP2 MSTORE SWAP1 PUSH1 0x1 ADD SWAP1 PUSH1 0x20 ADD DUP1 DUP4 GT PUSH2 0x261 JUMPI DUP3 SWAP1 SUB PUSH1 0x1F AND DUP3 ADD SWAP2 JUMPDEST POP POP POP POP POP SWAP1 POP SWAP1 JUMP JUMPDEST PUSH0 CALLER PUSH2 0x295 DUP2 DUP6 DUP6 PUSH2 0x349 JUMP JUMPDEST PUSH1 0x1 SWAP2 POP POP JUMPDEST SWAP3 SWAP2 POP POP JUMP JUMPDEST PUSH0 CALLER PUSH2 0x2AE DUP6 DUP3 DUP6 PUSH2 0x35B JUMP JUMPDEST PUSH2 0x2B9 DUP6 DUP6 DUP6 PUSH2 0x3D6 JUMP JUMPDEST POP PUSH1 0x1 SWAP5 SWAP4 POP POP POP POP JUMP JUMPDEST PUSH2 0x2CE CALLER DUP3 PUSH2 0x433 JUMP JUMPDEST POP JUMP JUMPDEST PUSH1 0x60 PUSH1 0x4 DUP1 SLOAD PUSH2 0x207 SWAP1 PUSH2 0x7AD JUMP JUMPDEST PUSH0 CALLER PUSH2 0x295 DUP2 DUP6 DUP6 PUSH2 0x3D6 JUMP JUMPDEST PUSH1 0x5 SLOAD PUSH1 0x1 PUSH1 0x1 PUSH1 0xA0 SHL SUB AND CALLER EQ PUSH2 0x33B JUMPI PUSH1 0x40 MLOAD PUSH3 0x461BCD PUSH1 0xE5 SHL DUP2 MSTORE PUSH1 0x20 PUSH1 0x4 DUP3 ADD MSTORE PUSH1 0xC PUSH1 0x24 DUP3 ADD MSTORE PUSH12 0x155B985D5D1A1BDC9A5E9959 PUSH1 0xA2 SHL PUSH1 0x44 DUP3 ADD MSTORE PUSH1 0x64 ADD JUMPDEST PUSH1 0x40 MLOAD DUP1 SWAP2 SUB SWAP1 REVERT JUMPDEST PUSH2 0x345 DUP3 DUP3 PUSH2 0x467 JUMP JUMPDEST POP POP JUMP JUMPDEST PUSH2 0x356 DUP4 DUP4 DUP4 PUSH1 0x1 PUSH2 0x49B JUMP JUMPDEST POP POP POP JUMP JUMPDEST PUSH1 0x1 PUSH1 0x1 PUSH1 0xA0 SHL SUB DUP4 DUP2 AND PUSH0 SWAP1 DUP2 MSTORE PUSH1 0x1 PUSH1 0x20 SWAP1 DUP2 MSTORE PUSH1 0x40 DUP1 DUP4 KECCAK256 SWAP4 DUP7 AND DUP4 MSTORE SWAP3 SWAP1 MSTORE KECCAK256 SLOAD PUSH0 NOT DUP2 EQ PUSH2 0x3D0 JUMPI DUP2 DUP2 LT ISZERO PUSH2 0x3C2 JUMPI PUSH1 0x40 MLOAD PUSH4 0x7DC7A0D9 PUSH1 0xE1 SHL DUP2 MSTORE PUSH1 0x1 PUSH1 0x1 PUSH1 0xA0 SHL SUB DUP5 AND PUSH1 0x4 DUP3 ADD MSTORE PUSH1 0x24 DUP2 ADD DUP3 SWAP1 MSTORE PUSH1 0x44 DUP2 ADD DUP4 SWAP1 MSTORE PUSH1 0x64 ADD PUSH2 0x332 JUMP JUMPDEST PUSH2 0x3D0 DUP5 DUP5 DUP5 DUP5 SUB PUSH0 PUSH2 0x49B JUMP JUMPDEST POP POP POP POP JUMP JUMPDEST PUSH1 0x1 PUSH1 0x1 PUSH1 0xA0 SHL SUB DUP4 AND PUSH2 0x3FF JUMPI PUSH1 0x40 MLOAD PUSH4 0x4B637E8F PUSH1 0xE1 SHL DUP2 MSTORE PUSH0 PUSH1 0x4 DUP3 ADD MSTORE PUSH1 0x24 ADD PUSH2 0x332 JUMP JUMPDEST PUSH1 0x1 PUSH1 0x1 PUSH1 0xA0 SHL SUB DUP3 AND PUSH2 0x428 JUMPI PUSH1 0x40 MLOAD PUSH4 0xEC442F05 PUSH1 0xE0 SHL DUP2 MSTORE PUSH0 PUSH1 0x4 DUP3 ADD MSTORE PUSH1 0x24 ADD PUSH2 0x332 JUMP JUMPDEST PUSH2 0x356 DUP4 DUP4 DUP4 PUSH2 0x56D JUMP JUMPDEST PUSH1 0x1 PUSH1 0x1 PUSH1 0xA0 SHL SUB DUP3 AND PUSH2 0x45C JUMPI PUSH1 0x40 MLOAD PUSH4 0x4B637E8F PUSH1 0xE1 SHL DUP2 MSTORE PUSH0 PUSH1 0x4 DUP3 ADD MSTORE PUSH1 0x24 ADD PUSH2 0x332 JUMP JUMPDEST PUSH2 0x345 DUP3 PUSH0 DUP4 PUSH2 0x56D JUMP JUMPDEST PUSH1 0x1 PUSH1 0x1 PUSH1 0xA0 SHL SUB DUP3 AND PUSH2 0x490 JUMPI PUSH1 0x40 MLOAD PUSH4 0xEC442F05 PUSH1 0xE0 SHL DUP2 MSTORE PUSH0 PUSH1 0x4 DUP3 ADD MSTORE PUSH1 0x24 ADD PUSH2 0x332 JUMP JUMPDEST PUSH2 0x345 PUSH0 DUP4 DUP4 PUSH2 0x56D JUMP JUMPDEST PUSH1 0x1 PUSH1 0x1 PUSH1 0xA0 SHL SUB DUP5 AND PUSH2 0x4C4 JUMPI PUSH1 0x40 MLOAD PUSH4 0xE602DF05 PUSH1 0xE0 SHL DUP2 MSTORE PUSH0 PUSH1 0x4 DUP3 ADD MSTORE PUSH1 0x24 ADD PUSH2 0x332 JUMP JUMPDEST PUSH1 0x1 PUSH1 0x1 PUSH1 0xA0 SHL SUB DUP4 AND PUSH2 0x4ED JUMPI PUSH1 0x40 MLOAD PUSH4 0x4A1406B1 PUSH1 0xE1 SHL DUP2 MSTORE PUSH0 PUSH1 0x4 DUP3 ADD MSTORE PUSH1 0x24 ADD PUSH2 0x332 JUMP JUMPDEST PUSH1 0x1 PUSH1 0x1 PUSH1 0xA0 SHL SUB DUP1 DUP6 AND PUSH0 SWAP1 DUP2 MSTORE PUSH1 0x1 PUSH1 0x20 SWAP1 DUP2 MSTORE PUSH1 0x40 DUP1 DUP4 KECCAK256 SWAP4 DUP8 AND DUP4 MSTORE SWAP3 SWAP1 MSTORE KECCAK256 DUP3 SWAP1 SSTORE DUP1 ISZERO PUSH2 0x3D0 JUMPI DUP3 PUSH1 0x1 PUSH1 0x1 PUSH1 0xA0 SHL SUB AND DUP5 PUSH1 0x1 PUSH1 0x1 PUSH1 0xA0 SHL SUB AND PUSH32 0x8C5BE1E5EBEC7D5BD14F71427D1E84F3DD0314C0F7B2291E5B200AC8C7C3B925 DUP5 PUSH1 0x40 MLOAD PUSH2 0x55F SWAP2 DUP2 MSTORE PUSH1 0x20 ADD SWAP1 JUMP JUMPDEST PUSH1 0x40 MLOAD DUP1 SWAP2 SUB SWAP1 LOG3 POP POP POP POP JUMP JUMPDEST PUSH1 0x1 PUSH1 0x1 PUSH1 0xA0 SHL SUB DUP4 AND PUSH2 0x597 JUMPI DUP1 PUSH1 0x2 PUSH0 DUP3 DUP3 SLOAD PUSH2 0x58C SWAP2 SWAP1 PUSH2 0x7E5 JUMP JUMPDEST SWAP1 SWAP2 SSTORE POP PUSH2 0x607 SWAP1 POP JUMP JUMPDEST PUSH1 0x1 PUSH1 0x1 PUSH1 0xA0 SHL SUB DUP4 AND PUSH0 SWAP1 DUP2 MSTORE PUSH1 0x20 DUP2 SWAP1 MSTORE PUSH1 0x40 SWAP1 KECCAK256 SLOAD DUP2 DUP2 LT ISZERO PUSH2 0x5E9 JUMPI PUSH1 0x40 MLOAD PUSH4 0x391434E3 PUSH1 0xE2 SHL DUP2 MSTORE PUSH1 0x1 PUSH1 0x1 PUSH1 0xA0 SHL SUB DUP6 AND PUSH1 0x4 DUP3 ADD MSTORE PUSH1 0x24 DUP2 ADD DUP3 SWAP1 MSTORE PUSH1 0x44 DUP2 ADD DUP4 SWAP1 MSTORE PUSH1 0x64 ADD PUSH2 0x332 JUMP JUMPDEST PUSH1 0x1 PUSH1 0x1 PUSH1 0xA0 SHL SUB DUP5 AND PUSH0 SWAP1 DUP2 MSTORE PUSH1 0x20 DUP2 SWAP1 MSTORE PUSH1 0x40 SWAP1 KECCAK256 SWAP1 DUP3 SWAP1 SUB SWAP1 SSTORE JUMPDEST PUSH1 0x1 PUSH1 0x1 PUSH1 0xA0 SHL SUB DUP3 AND PUSH2 0x623 JUMPI PUSH1 0x2 DUP1 SLOAD DUP3 SWAP1 SUB SWAP1 SSTORE PUSH2 0x641 JUMP JUMPDEST PUSH1 0x1 PUSH1 0x1 PUSH1 0xA0 SHL SUB DUP3 AND PUSH0 SWAP1 DUP2 MSTORE PUSH1 0x20 DUP2 SWAP1 MSTORE PUSH1 0x40 SWAP1 KECCAK256 DUP1 SLOAD DUP3 ADD SWAP1 SSTORE JUMPDEST DUP2 PUSH1 0x1 PUSH1 0x1 PUSH1 0xA0 SHL SUB AND DUP4 PUSH1 0x1 PUSH1 0x1 PUSH1 0xA0 SHL SUB AND PUSH32 0xDDF252AD1BE2C89B69C2B068FC378DAA952BA7F163C4A11628F55A4DF523B3EF DUP4 PUSH1 0x40 MLOAD PUSH2 0x686 SWAP2 DUP2 MSTORE PUSH1 0x20 ADD SWAP1 JUMP JUMPDEST PUSH1 0x40 MLOAD DUP1 SWAP2 SUB SWAP1 LOG3 POP POP POP JUMP JUMPDEST PUSH1 0x20 DUP2 MSTORE PUSH0 DUP3 MLOAD DUP1 PUSH1 0x20 DUP5 ADD MSTORE DUP1 PUSH1 0x20 DUP6 ADD PUSH1 0x40 DUP6 ADD MCOPY PUSH0 PUSH1 0x40 DUP3 DUP6 ADD ADD MSTORE PUSH1 0x40 PUSH1 0x1F NOT PUSH1 0x1F DUP4 ADD AND DUP5 ADD ADD SWAP2 POP POP SWAP3 SWAP2 POP POP JUMP JUMPDEST DUP1 CALLDATALOAD PUSH1 0x1 PUSH1 0x1 PUSH1 0xA0 SHL SUB DUP2 AND DUP2 EQ PUSH2 0x6DE JUMPI PUSH0 DUP1 REVERT JUMPDEST SWAP2 SWAP1 POP JUMP JUMPDEST PUSH0 DUP1 PUSH1 0x40 DUP4 DUP6 SUB SLT ISZERO PUSH2 0x6F4 JUMPI PUSH0 DUP1 REVERT JUMPDEST PUSH2 0x6FD DUP4 PUSH2 0x6C8 JUMP JUMPDEST SWAP5 PUSH1 0x20 SWAP4 SWAP1 SWAP4 ADD CALLDATALOAD SWAP4 POP POP POP JUMP JUMPDEST PUSH0 DUP1 PUSH0 PUSH1 0x60 DUP5 DUP7 SUB SLT ISZERO PUSH2 0x71D JUMPI PUSH0 DUP1 REVERT JUMPDEST PUSH2 0x726 DUP5 PUSH2 0x6C8 JUMP JUMPDEST SWAP3 POP PUSH2 0x734 PUSH1 0x20 DUP6 ADD PUSH2 0x6C8 JUMP JUMPDEST SWAP3 SWAP6 SWAP3 SWAP5 POP POP POP PUSH1 0x40 SWAP2 SWAP1 SWAP2 ADD CALLDATALOAD SWAP1 JUMP JUMPDEST PUSH0 PUSH1 0x20 DUP3 DUP5 SUB SLT ISZERO PUSH2 0x755 JUMPI PUSH0 DUP1 REVERT JUMPDEST POP CALLDATALOAD SWAP2 SWAP1 POP JUMP JUMPDEST PUSH0 PUSH1 0x20 DUP3 DUP5 SUB SLT ISZERO PUSH2 0x76C JUMPI PUSH0 DUP1 REVERT JUMPDEST PUSH2 0x775 DUP3 PUSH2 0x6C8 JUMP JUMPDEST SWAP4 SWAP3 POP POP POP JUMP JUMPDEST PUSH0 DUP1 PUSH1 0x40 DUP4 DUP6 SUB SLT ISZERO PUSH2 0x78D JUMPI PUSH0 DUP1 REVERT JUMPDEST PUSH2 0x796 DUP4 PUSH2 0x6C8 JUMP JUMPDEST SWAP2 POP PUSH2 0x7A4 PUSH1 0x20 DUP5 ADD PUSH2 0x6C8 JUMP JUMPDEST SWAP1 POP SWAP3 POP SWAP3 SWAP1 POP JUMP JUMPDEST PUSH1 0x1 DUP2 DUP2 SHR SWAP1 DUP3 AND DUP1 PUSH2 0x7C1 JUMPI PUSH1 0x7F DUP3 AND SWAP2 POP JUMPDEST PUSH1 0x20 DUP3 LT DUP2 SUB PUSH2 0x7DF JUMPI PUSH4 0x4E487B71 PUSH1 0xE0 SHL PUSH0 MSTORE PUSH1 0x22 PUSH1 0x4 MSTORE PUSH1 0x24 PUSH0 REVERT JUMPDEST POP SWAP2 SWAP1 POP JUMP JUMPDEST DUP1 DUP3 ADD DUP1 DUP3 GT ISZERO PUSH2 0x29B JUMPI PUSH4 0x4E487B71 PUSH1 0xE0 SHL PUSH0 MSTORE PUSH1 0x11 PUSH1 0x4 MSTORE PUSH1 0x24 PUSH0 REVERT INVALID LOG2 PUSH5 0x6970667358 0x22 SLT KECCAK256 0xBF SWAP6 PUSH1 0x74 PREVRANDAO 0xB8 DUP3 0x2A MSTORE8 0xCA EXTCODEHASH DUP14 DUP7 0xEE SWAP3 EXTCODEHASH CALLER BLOBBASEFEE 0xA9 DUP6 0xA7 0xE5 0x2C 0xEB 0xE1 PUSH30 0x6B73F546E03064736F6C634300081A003300000000000000000000000000 "
				},
				"gasEstimates": {
					"creation": {
						"codeDepositCost": "421200",
						"executionCost": "infinite",
						"totalCost": "infinite"
					},
					"external": {
						"admin()": "2446",
						"allowance(address,address)": "infinite",
						"approve(address,uint256)": "24735",
						"balanceOf(address)": "2537",
						"burnTokens(uint256)": "51027",
						"decimals()": "265",
						"mintTokens(address,uint256)": "infinite",
						"name()": "infinite",
						"symbol()": "infinite",
						"totalSupply()": "2325",
						"transfer(address,uint256)": "51260",
						"transferFrom(address,address,uint256)": "infinite"
					}
				},
				"methodIdentifiers": {
					"admin()": "f851a440",
					"allowance(address,address)": "dd62ed3e",
					"approve(address,uint256)": "095ea7b3",
					"balanceOf(address)": "70a08231",
					"burnTokens(uint256)": "6d1b229d",
					"decimals()": "313ce567",
					"mintTokens(address,uint256)": "f0dda65c",
					"name()": "06fdde03",
					"symbol()": "95d89b41",
					"totalSupply()": "18160ddd",
					"transfer(address,uint256)": "a9059cbb",
					"transferFrom(address,address,uint256)": "23b872dd"
				}
			},
			"storageLayout": {
				"storage": [
					{
						"astId": 52,
						"contract": "contracts/GameToken.sol:GameToken",
						"label": "_balances",
						"offset": 0,
						"slot": "0",
						"type": "t_mapping(t_address,t_uint256)"
					},
					{
						"astId": 58,
						"contract": "contracts/GameToken.sol:GameToken",
						"label": "_allowances",
						"offset": 0,
						"slot": "1",
						"type": "t_mapping(t_address,t_mapping(t_address,t_uint256))"
					},
					{
						"astId": 60,
						"contract": "contracts/GameToken.sol:GameToken",
						"label": "_totalSupply",
						"offset": 0,
						"slot": "2",
						"type": "t_uint256"
					},
					{
						"astId": 62,
						"contract": "contracts/GameToken.sol:GameToken",
						"label": "_name",
						"offset": 0,
						"slot": "3",
						"type": "t_string_storage"
					},
					{
						"astId": 64,
						"contract": "contracts/GameToken.sol:GameToken",
						"label": "_symbol",
						"offset": 0,
						"slot": "4",
						"type": "t_string_storage"
					},
					{
						"astId": 655,
						"contract": "contracts/GameToken.sol:GameToken",
						"label": "admin",
						"offset": 0,
						"slot": "5",
						"type": "t_address"
					}
				],
				"types": {
					"t_address": {
						"encoding": "inplace",
						"label": "address",
						"numberOfBytes": "20"
					},
					"t_mapping(t_address,t_mapping(t_address,t_uint256))": {
						"encoding": "mapping",
						"key": "t_address",
						"label": "mapping(address => mapping(address => uint256))",
						"numberOfBytes": "32",
						"value": "t_mapping(t_address,t_uint256)"
					},
					"t_mapping(t_address,t_uint256)": {
						"encoding": "mapping",
						"key": "t_address",
						"label": "mapping(address => uint256)",
						"numberOfBytes": "32",
						"value": "t_uint256"
					},
					"t_string_storage": {
						"encoding": "bytes",
						"label": "string",
						"numberOfBytes": "32"
					},
					"t_uint256": {
						"encoding": "inplace",
						"label": "uint256",
						"numberOfBytes": "32"
					}
				}
			},
			"userdoc": {
				"kind": "user",
				"methods": {},
				"version": 1
			}
		}
	}
}